{
  "contractName": "Q2",
  "abi": [
    {
      "inputs": [
        {
          "internalType": "address",
          "name": "_ethWallet",
          "type": "address"
        }
      ],
      "stateMutability": "nonpayable",
      "type": "constructor"
    },
    {
      "anonymous": false,
      "inputs": [
        {
          "indexed": true,
          "internalType": "address",
          "name": "owner",
          "type": "address"
        },
        {
          "indexed": true,
          "internalType": "address",
          "name": "spender",
          "type": "address"
        },
        {
          "indexed": false,
          "internalType": "uint256",
          "name": "value",
          "type": "uint256"
        }
      ],
      "name": "Approval",
      "type": "event"
    },
    {
      "anonymous": false,
      "inputs": [
        {
          "indexed": true,
          "internalType": "address",
          "name": "_to",
          "type": "address"
        },
        {
          "indexed": false,
          "internalType": "uint256",
          "name": "_value",
          "type": "uint256"
        }
      ],
      "name": "MintTokens",
      "type": "event"
    },
    {
      "anonymous": false,
      "inputs": [
        {
          "indexed": true,
          "internalType": "address",
          "name": "oldOwner",
          "type": "address"
        },
        {
          "indexed": true,
          "internalType": "address",
          "name": "newOwner",
          "type": "address"
        }
      ],
      "name": "OwnershipChanged",
      "type": "event"
    },
    {
      "anonymous": false,
      "inputs": [
        {
          "indexed": true,
          "internalType": "address",
          "name": "_address",
          "type": "address"
        },
        {
          "indexed": false,
          "internalType": "bool",
          "name": "status",
          "type": "bool"
        }
      ],
      "name": "RestrictedStatusChanged",
      "type": "event"
    },
    {
      "anonymous": false,
      "inputs": [
        {
          "indexed": false,
          "internalType": "uint8",
          "name": "_stage",
          "type": "uint8"
        },
        {
          "indexed": false,
          "internalType": "uint256",
          "name": "_totalSupply",
          "type": "uint256"
        },
        {
          "indexed": false,
          "internalType": "uint256",
          "name": "_balance",
          "type": "uint256"
        }
      ],
      "name": "StageEnded",
      "type": "event"
    },
    {
      "anonymous": false,
      "inputs": [
        {
          "indexed": false,
          "internalType": "uint8",
          "name": "_stage",
          "type": "uint8"
        },
        {
          "indexed": false,
          "internalType": "uint256",
          "name": "_totalSupply",
          "type": "uint256"
        },
        {
          "indexed": false,
          "internalType": "uint256",
          "name": "_balance",
          "type": "uint256"
        }
      ],
      "name": "StageStarted",
      "type": "event"
    },
    {
      "anonymous": false,
      "inputs": [
        {
          "indexed": true,
          "internalType": "address",
          "name": "from",
          "type": "address"
        },
        {
          "indexed": true,
          "internalType": "address",
          "name": "to",
          "type": "address"
        },
        {
          "indexed": false,
          "internalType": "uint256",
          "name": "value",
          "type": "uint256"
        }
      ],
      "name": "Transfer",
      "type": "event"
    },
    {
      "anonymous": false,
      "inputs": [
        {
          "indexed": false,
          "internalType": "bool",
          "name": "status",
          "type": "bool"
        }
      ],
      "name": "WhitelistChanged",
      "type": "event"
    },
    {
      "anonymous": false,
      "inputs": [
        {
          "indexed": true,
          "internalType": "address",
          "name": "_address",
          "type": "address"
        },
        {
          "indexed": false,
          "internalType": "bool",
          "name": "status",
          "type": "bool"
        }
      ],
      "name": "WhitelistStatusChanged",
      "type": "event"
    },
    {
      "inputs": [
        {
          "internalType": "address",
          "name": "account",
          "type": "address"
        }
      ],
      "name": "RoyaltysOwing",
      "outputs": [
        {
          "internalType": "uint256",
          "name": "",
          "type": "uint256"
        }
      ],
      "stateMutability": "view",
      "type": "function",
      "constant": true
    },
    {
      "inputs": [
        {
          "internalType": "address",
          "name": "",
          "type": "address"
        },
        {
          "internalType": "address",
          "name": "",
          "type": "address"
        }
      ],
      "name": "_allowances",
      "outputs": [
        {
          "internalType": "uint256",
          "name": "",
          "type": "uint256"
        }
      ],
      "stateMutability": "view",
      "type": "function",
      "constant": true
    },
    {
      "inputs": [
        {
          "internalType": "address",
          "name": "",
          "type": "address"
        }
      ],
      "name": "_balances",
      "outputs": [
        {
          "internalType": "uint256",
          "name": "",
          "type": "uint256"
        }
      ],
      "stateMutability": "view",
      "type": "function",
      "constant": true
    },
    {
      "inputs": [],
      "name": "_totalSupply",
      "outputs": [
        {
          "internalType": "uint256",
          "name": "",
          "type": "uint256"
        }
      ],
      "stateMutability": "view",
      "type": "function",
      "constant": true
    },
    {
      "inputs": [
        {
          "internalType": "address",
          "name": "",
          "type": "address"
        }
      ],
      "name": "accounts",
      "outputs": [
        {
          "internalType": "uint256",
          "name": "balance",
          "type": "uint256"
        },
        {
          "internalType": "uint256",
          "name": "lastRoyaltyPoint",
          "type": "uint256"
        }
      ],
      "stateMutability": "view",
      "type": "function",
      "constant": true
    },
    {
      "inputs": [
        {
          "internalType": "address",
          "name": "owner",
          "type": "address"
        },
        {
          "internalType": "address",
          "name": "spender",
          "type": "address"
        }
      ],
      "name": "allowance",
      "outputs": [
        {
          "internalType": "uint256",
          "name": "",
          "type": "uint256"
        }
      ],
      "stateMutability": "view",
      "type": "function",
      "constant": true
    },
    {
      "inputs": [
        {
          "internalType": "address",
          "name": "spender",
          "type": "address"
        },
        {
          "internalType": "uint256",
          "name": "amount",
          "type": "uint256"
        }
      ],
      "name": "approve",
      "outputs": [
        {
          "internalType": "bool",
          "name": "",
          "type": "bool"
        }
      ],
      "stateMutability": "nonpayable",
      "type": "function"
    },
    {
      "inputs": [
        {
          "internalType": "address",
          "name": "account",
          "type": "address"
        }
      ],
      "name": "balanceOf",
      "outputs": [
        {
          "internalType": "uint256",
          "name": "",
          "type": "uint256"
        }
      ],
      "stateMutability": "view",
      "type": "function",
      "constant": true
    },
    {
      "inputs": [],
      "name": "creationCap",
      "outputs": [
        {
          "internalType": "uint256",
          "name": "",
          "type": "uint256"
        }
      ],
      "stateMutability": "view",
      "type": "function",
      "constant": true
    },
    {
      "inputs": [],
      "name": "currentStage",
      "outputs": [
        {
          "internalType": "uint8",
          "name": "",
          "type": "uint8"
        }
      ],
      "stateMutability": "view",
      "type": "function",
      "constant": true
    },
    {
      "inputs": [],
      "name": "decimals",
      "outputs": [
        {
          "internalType": "uint8",
          "name": "",
          "type": "uint8"
        }
      ],
      "stateMutability": "view",
      "type": "function",
      "constant": true
    },
    {
      "inputs": [],
      "name": "disburse",
      "outputs": [],
      "stateMutability": "payable",
      "type": "function",
      "payable": true
    },
    {
      "inputs": [],
      "name": "ethWallet",
      "outputs": [
        {
          "internalType": "address",
          "name": "",
          "type": "address"
        }
      ],
      "stateMutability": "view",
      "type": "function",
      "constant": true
    },
    {
      "inputs": [],
      "name": "name",
      "outputs": [
        {
          "internalType": "string",
          "name": "",
          "type": "string"
        }
      ],
      "stateMutability": "view",
      "type": "function",
      "constant": true
    },
    {
      "inputs": [],
      "name": "owner",
      "outputs": [
        {
          "internalType": "address",
          "name": "",
          "type": "address"
        }
      ],
      "stateMutability": "view",
      "type": "function",
      "constant": true
    },
    {
      "inputs": [],
      "name": "reservedFund",
      "outputs": [
        {
          "internalType": "uint256",
          "name": "",
          "type": "uint256"
        }
      ],
      "stateMutability": "view",
      "type": "function",
      "constant": true
    },
    {
      "inputs": [
        {
          "internalType": "address",
          "name": "",
          "type": "address"
        }
      ],
      "name": "restrictedAddresses",
      "outputs": [
        {
          "internalType": "bool",
          "name": "",
          "type": "bool"
        }
      ],
      "stateMutability": "view",
      "type": "function",
      "constant": true
    },
    {
      "inputs": [],
      "name": "symbol",
      "outputs": [
        {
          "internalType": "string",
          "name": "",
          "type": "string"
        }
      ],
      "stateMutability": "view",
      "type": "function",
      "constant": true
    },
    {
      "inputs": [],
      "name": "totalRoyalty",
      "outputs": [
        {
          "internalType": "uint256",
          "name": "",
          "type": "uint256"
        }
      ],
      "stateMutability": "view",
      "type": "function",
      "constant": true
    },
    {
      "inputs": [],
      "name": "totalSupply",
      "outputs": [
        {
          "internalType": "uint256",
          "name": "",
          "type": "uint256"
        }
      ],
      "stateMutability": "view",
      "type": "function",
      "constant": true
    },
    {
      "inputs": [
        {
          "internalType": "address",
          "name": "_to",
          "type": "address"
        },
        {
          "internalType": "uint256",
          "name": "_value",
          "type": "uint256"
        }
      ],
      "name": "transfer",
      "outputs": [
        {
          "internalType": "bool",
          "name": "success",
          "type": "bool"
        }
      ],
      "stateMutability": "nonpayable",
      "type": "function"
    },
    {
      "inputs": [
        {
          "internalType": "address",
          "name": "_from",
          "type": "address"
        },
        {
          "internalType": "address",
          "name": "_to",
          "type": "address"
        },
        {
          "internalType": "uint256",
          "name": "_value",
          "type": "uint256"
        }
      ],
      "name": "transferFrom",
      "outputs": [
        {
          "internalType": "bool",
          "name": "success",
          "type": "bool"
        }
      ],
      "stateMutability": "nonpayable",
      "type": "function"
    },
    {
      "inputs": [
        {
          "internalType": "address",
          "name": "newOwner",
          "type": "address"
        }
      ],
      "name": "transferOwnership",
      "outputs": [],
      "stateMutability": "nonpayable",
      "type": "function"
    },
    {
      "inputs": [],
      "name": "unclaimedRoyalty",
      "outputs": [
        {
          "internalType": "uint256",
          "name": "",
          "type": "uint256"
        }
      ],
      "stateMutability": "view",
      "type": "function",
      "constant": true
    },
    {
      "inputs": [],
      "name": "whitelist",
      "outputs": [
        {
          "internalType": "bool",
          "name": "",
          "type": "bool"
        }
      ],
      "stateMutability": "view",
      "type": "function",
      "constant": true
    },
    {
      "inputs": [
        {
          "internalType": "address",
          "name": "",
          "type": "address"
        }
      ],
      "name": "whitelistedAddresses",
      "outputs": [
        {
          "internalType": "bool",
          "name": "",
          "type": "bool"
        }
      ],
      "stateMutability": "view",
      "type": "function",
      "constant": true
    },
    {
      "inputs": [],
      "name": "withdrawRoyalty",
      "outputs": [],
      "stateMutability": "nonpayable",
      "type": "function"
    },
    {
      "inputs": [],
      "name": "buyTokens",
      "outputs": [],
      "stateMutability": "payable",
      "type": "function",
      "payable": true
    },
    {
      "inputs": [
        {
          "internalType": "uint256",
          "name": "_exchangeRate",
          "type": "uint256"
        },
        {
          "internalType": "uint256",
          "name": "_cap",
          "type": "uint256"
        },
        {
          "internalType": "uint256",
          "name": "_startBlock",
          "type": "uint256"
        },
        {
          "internalType": "uint256",
          "name": "_endBlock",
          "type": "uint256"
        }
      ],
      "name": "startStage",
      "outputs": [],
      "stateMutability": "nonpayable",
      "type": "function"
    },
    {
      "inputs": [],
      "name": "withdraw",
      "outputs": [],
      "stateMutability": "nonpayable",
      "type": "function"
    },
    {
      "inputs": [],
      "name": "getCurrentStage",
      "outputs": [
        {
          "internalType": "uint8",
          "name": "number",
          "type": "uint8"
        },
        {
          "internalType": "uint256",
          "name": "exchangeRate",
          "type": "uint256"
        },
        {
          "internalType": "uint256",
          "name": "startBlock",
          "type": "uint256"
        },
        {
          "internalType": "uint256",
          "name": "endBlock",
          "type": "uint256"
        },
        {
          "internalType": "uint256",
          "name": "cap",
          "type": "uint256"
        }
      ],
      "stateMutability": "view",
      "type": "function",
      "constant": true
    },
    {
      "inputs": [
        {
          "internalType": "address",
          "name": "_address",
          "type": "address"
        },
        {
          "internalType": "bool",
          "name": "status",
          "type": "bool"
        }
      ],
      "name": "changeWhitelistStatus",
      "outputs": [],
      "stateMutability": "nonpayable",
      "type": "function"
    },
    {
      "inputs": [
        {
          "internalType": "address",
          "name": "_address",
          "type": "address"
        },
        {
          "internalType": "bool",
          "name": "status",
          "type": "bool"
        }
      ],
      "name": "changeRestrictedtStatus",
      "outputs": [],
      "stateMutability": "nonpayable",
      "type": "function"
    },
    {
      "inputs": [
        {
          "internalType": "bool",
          "name": "status",
          "type": "bool"
        }
      ],
      "name": "changeWhitelist",
      "outputs": [],
      "stateMutability": "nonpayable",
      "type": "function"
    }
  ],
  "bytecode": "0x60806040526040518060400160405280600281526020017f513200000000000000000000000000000000000000000000000000000000000081525060089080519060200190620000519291906200036d565b506040518060400160405280600281526020017f5132000000000000000000000000000000000000000000000000000000000000815250600990805190602001906200009f9291906200036d565b506012600a60006101000a81548160ff021916908360ff1602179055506001600a60016101000a81548160ff0219169083151502179055506a0c685fa11e01ec6f000000600c556a084595161401484a000000600d553480156200010257600080fd5b5060405162002e7638038062002e76833981810160405281019062000128919062000434565b336000806101000a81548173ffffffffffffffffffffffffffffffffffffffff021916908373ffffffffffffffffffffffffffffffffffffffff16021790555080600e60006101000a81548173ffffffffffffffffffffffffffffffffffffffff021916908373ffffffffffffffffffffffffffffffffffffffff160217905550620001df600e60009054906101000a900473ffffffffffffffffffffffffffffffffffffffff16600d54620001e660201b60201c565b50620005d7565b60008111620001f457600080fd5b6200024d81600160008573ffffffffffffffffffffffffffffffffffffffff1673ffffffffffffffffffffffffffffffffffffffff168152602001908152602001600020546200031860201b620016001790919060201c565b600160008473ffffffffffffffffffffffffffffffffffffffff1673ffffffffffffffffffffffffffffffffffffffff16815260200190815260200160002081905550620002ac816003546200031860201b620016001790919060201c565b600381905550600c546003541115620002c457600080fd5b8173ffffffffffffffffffffffffffffffffffffffff167f7b47457f3af09e5f794b020fd74160963a808f5985883496a096d403d380c343826040516200030c919062000471565b60405180910390a25050565b60008082846200032991906200048e565b90508381101562000363577f4e487b7100000000000000000000000000000000000000000000000000000000600052600160045260246000fd5b8091505092915050565b8280546200037b9062000529565b90600052602060002090601f0160209004810192826200039f5760008555620003eb565b82601f10620003ba57805160ff1916838001178555620003eb565b82800160010185558215620003eb579182015b82811115620003ea578251825591602001919060010190620003cd565b5b509050620003fa9190620003fe565b5090565b5b8082111562000419576000816000905550600101620003ff565b5090565b6000815190506200042e81620005bd565b92915050565b6000602082840312156200044757600080fd5b600062000457848285016200041d565b91505092915050565b6200046b816200051f565b82525050565b600060208201905062000488600083018462000460565b92915050565b60006200049b826200051f565b9150620004a8836200051f565b9250827fffffffffffffffffffffffffffffffffffffffffffffffffffffffffffffffff03821115620004e057620004df6200055f565b5b828201905092915050565b6000620004f882620004ff565b9050919050565b600073ffffffffffffffffffffffffffffffffffffffff82169050919050565b6000819050919050565b600060028204905060018216806200054257607f821691505b602082108114156200055957620005586200058e565b5b50919050565b7f4e487b7100000000000000000000000000000000000000000000000000000000600052601160045260246000fd5b7f4e487b7100000000000000000000000000000000000000000000000000000000600052602260045260246000fd5b620005c881620004eb565b8114620005d457600080fd5b50565b61288f80620005e76000396000f3fe6080604052600436106101f95760003560e01c80638399f93f1161010d578063d78506ce116100a0578063eedbe31d1161006f578063eedbe31d14610748578063f1147bae14610777578063f2fde38b1461078e578063f330fb69146107b7578063f751b26a146107e0576101f9565b8063d78506ce1461067a578063dd62ed3e146106b7578063de80344d146106f4578063eb76607d1461071d576101f9565b806397bdc7c8116100dc57806397bdc7c814610600578063a9059cbb14610629578063abc6fd0b14610666578063d0febe4c14610670576101f9565b80638399f93f146105545780638da5cb5b1461057f57806393e59dc1146105aa57806395d89b41146105d5576101f9565b80633ccfd60b116101905780635a998a091161015f5780635a998a09146104465780635bf5d54c146104715780635e5c06e21461049c5780636ebcf607146104da57806370a0823114610517576101f9565b80633ccfd60b1461039e5780633eaaf86b146103b55780633fe431ad146103e0578063486f1c2a14610409576101f9565b8063095ea7b3116101cc578063095ea7b3146102ce57806318160ddd1461030b57806323b872dd14610336578063313ce56714610373576101f9565b8063024c2ddd146101fe57806306c933d81461023b57806306fdde031461027857806309094f7a146102a3575b600080fd5b34801561020a57600080fd5b5061022560048036038101906102209190611f22565b61080b565b60405161023291906124a2565b60405180910390f35b34801561024757600080fd5b50610262600480360381019061025d9190611ef9565b610830565b60405161026f91906123a5565b60405180910390f35b34801561028457600080fd5b5061028d610850565b60405161029a91906123c0565b60405180910390f35b3480156102af57600080fd5b506102b86108de565b6040516102c5919061238a565b60405180910390f35b3480156102da57600080fd5b506102f560048036038101906102f09190611fe9565b610904565b60405161030291906123a5565b60405180910390f35b34801561031757600080fd5b50610320610922565b60405161032d91906124a2565b60405180910390f35b34801561034257600080fd5b5061035d60048036038101906103589190611f5e565b61092c565b60405161036a91906123a5565b60405180910390f35b34801561037f57600080fd5b50610388610954565b60405161039591906124e6565b60405180910390f35b3480156103aa57600080fd5b506103b3610967565b005b3480156103c157600080fd5b506103ca6109c1565b6040516103d791906124a2565b60405180910390f35b3480156103ec57600080fd5b5061040760048036038101906104029190611fad565b6109c7565b005b34801561041557600080fd5b50610430600480360381019061042b9190611ef9565b610ac8565b60405161043d91906123a5565b60405180910390f35b34801561045257600080fd5b5061045b610ae8565b60405161046891906124a2565b60405180910390f35b34801561047d57600080fd5b50610486610aee565b60405161049391906124e6565b60405180910390f35b3480156104a857600080fd5b506104c360048036038101906104be9190611ef9565b610b01565b6040516104d19291906124bd565b60405180910390f35b3480156104e657600080fd5b5061050160048036038101906104fc9190611ef9565b610b25565b60405161050e91906124a2565b60405180910390f35b34801561052357600080fd5b5061053e60048036038101906105399190611ef9565b610b3d565b60405161054b91906124a2565b60405180910390f35b34801561056057600080fd5b50610569610b86565b60405161057691906124a2565b60405180910390f35b34801561058b57600080fd5b50610594610b8c565b6040516105a1919061238a565b60405180910390f35b3480156105b657600080fd5b506105bf610bb0565b6040516105cc91906123a5565b60405180910390f35b3480156105e157600080fd5b506105ea610bc3565b6040516105f791906123c0565b60405180910390f35b34801561060c57600080fd5b5061062760048036038101906106229190612025565b610c51565b005b34801561063557600080fd5b50610650600480360381019061064b9190611fe9565b610cfd565b60405161065d91906123a5565b60405180910390f35b61066e610d7f565b005b610678610dde565b005b34801561068657600080fd5b506106a1600480360381019061069c9190611ef9565b610f25565b6040516106ae91906124a2565b60405180910390f35b3480156106c357600080fd5b506106de60048036038101906106d99190611f22565b610fbd565b6040516106eb91906124a2565b60405180910390f35b34801561070057600080fd5b5061071b6004803603810190610716919061204e565b611044565b005b34801561072957600080fd5b5061073261124e565b60405161073f91906124a2565b60405180910390f35b34801561075457600080fd5b5061075d611254565b60405161076e959493929190612501565b60405180910390f35b34801561078357600080fd5b5061078c611302565b005b34801561079a57600080fd5b506107b560048036038101906107b09190611ef9565b6113aa565b005b3480156107c357600080fd5b506107de60048036038101906107d99190611fad565b6114f9565b005b3480156107ec57600080fd5b506107f56115fa565b60405161080291906124a2565b60405180910390f35b6002602052816000526040600020602052806000526040600020600091509150505481565b600b6020528060005260406000206000915054906101000a900460ff1681565b6008805461085d90612744565b80601f016020809104026020016040519081016040528092919081815260200182805461088990612744565b80156108d65780601f106108ab576101008083540402835291602001916108d6565b820191906000526020600020905b8154815290600101906020018083116108b957829003601f168201915b505050505081565b600e60009054906101000a900473ffffffffffffffffffffffffffffffffffffffff1681565b6000610918610911611652565b848461165a565b6001905092915050565b6000600354905090565b600061093783611825565b61094084611825565b61094b84848461193f565b90509392505050565b600a60009054906101000a900460ff1681565b60008054906101000a900473ffffffffffffffffffffffffffffffffffffffff1673ffffffffffffffffffffffffffffffffffffffff163373ffffffffffffffffffffffffffffffffffffffff16146109bf57600080fd5b565b60035481565b60008054906101000a900473ffffffffffffffffffffffffffffffffffffffff1673ffffffffffffffffffffffffffffffffffffffff163373ffffffffffffffffffffffffffffffffffffffff1614610a1f57600080fd5b80600460008473ffffffffffffffffffffffffffffffffffffffff1673ffffffffffffffffffffffffffffffffffffffff16815260200190815260200160002060006101000a81548160ff0219169083151502179055508173ffffffffffffffffffffffffffffffffffffffff167fca364cd65b32cbd07cee6dd2b7aceb87913eac863ee31028b957d409972a6c8882604051610abc91906123a5565b60405180910390a25050565b60046020528060005260406000206000915054906101000a900460ff1681565b60065481565b601060009054906101000a900460ff1681565b60056020528060005260406000206000915090508060000154908060010154905082565b60016020528060005260406000206000915090505481565b6000600160008373ffffffffffffffffffffffffffffffffffffffff1673ffffffffffffffffffffffffffffffffffffffff168152602001908152602001600020549050919050565b600d5481565b60008054906101000a900473ffffffffffffffffffffffffffffffffffffffff1681565b600a60019054906101000a900460ff1681565b60098054610bd090612744565b80601f0160208091040260200160405190810160405280929190818152602001828054610bfc90612744565b8015610c495780601f10610c1e57610100808354040283529160200191610c49565b820191906000526020600020905b815481529060010190602001808311610c2c57829003601f168201915b505050505081565b60008054906101000a900473ffffffffffffffffffffffffffffffffffffffff1673ffffffffffffffffffffffffffffffffffffffff163373ffffffffffffffffffffffffffffffffffffffff1614610ca957600080fd5b80600a60016101000a81548160ff0219169083151502179055507f0d50ffb8142306f44502939eeb37f97727c319ac3cd8ec196ca88f3338eca9af81604051610cf291906123a5565b60405180910390a150565b6000801515600460003373ffffffffffffffffffffffffffffffffffffffff1673ffffffffffffffffffffffffffffffffffffffff16815260200190815260200160002060009054906101000a900460ff16151514610d5b57600080fd5b610d6483611825565b610d6d33611825565b610d778383611a37565b905092915050565b6000610d89610922565b11610d9357600080fd5b60003411610da057600080fd5b6000349050610dba8160065461160090919063ffffffff16565b600681905550610dd58160075461160090919063ffffffff16565b60078190555050565b60001515600a60019054906101000a900460ff1615151480610e50575060011515600b60003373ffffffffffffffffffffffffffffffffffffffff1673ffffffffffffffffffffffffffffffffffffffff16815260200190815260200160002060009054906101000a900460ff161515145b610e5957600080fd5b60003411610e6657600080fd5b6000600f6000601060009054906101000a900460ff1660ff1660ff1681526020019081526020016000206040518060a00160405290816000820160009054906101000a900460ff1660ff1660ff168152602001600182015481526020016002820154815260200160038201548152602001600482015481525050905080604001514310158015610efa575080606001514311155b610f0357600080fd5b6000816020015134610f15919061262e565b9050610f213382611a55565b5050565b600080610f7f600560008573ffffffffffffffffffffffffffffffffffffffff1673ffffffffffffffffffffffffffffffffffffffff16815260200190815260200160002060010154600654611b7590919063ffffffff16565b9050610fb5610f8c610922565b610fa783610f9987610b3d565b611bc290919063ffffffff16565b611c3190919063ffffffff16565b915050919050565b6000600260008473ffffffffffffffffffffffffffffffffffffffff1673ffffffffffffffffffffffffffffffffffffffff16815260200190815260200160002060008373ffffffffffffffffffffffffffffffffffffffff1673ffffffffffffffffffffffffffffffffffffffff16815260200190815260200160002054905092915050565b60008054906101000a900473ffffffffffffffffffffffffffffffffffffffff1673ffffffffffffffffffffffffffffffffffffffff163373ffffffffffffffffffffffffffffffffffffffff161461109c57600080fd5b6000841180156110ac5750600083115b6110b557600080fd5b4382116110c157600080fd5b8082106110cd57600080fd5b6000600f6000601060009054906101000a900460ff1660ff1660ff1681526020019081526020016000206040518060a00160405290816000820160009054906101000a900460ff1660ff1660ff16815260200160018201548152602001600282015481526020016003820154815260200160048201548152505090506000816060015150506001601060009054906101000a900460ff1661116e91906125c6565b601060006101000a81548160ff021916908360ff16021790555060006040518060a00160405280601060009054906101000a900460ff1660ff1681526020018781526020018581526020018481526020016000876111cc9190612570565b815250905080600f6000601060009054906101000a900460ff1660ff1660ff16815260200190815260200160002060008201518160000160006101000a81548160ff021916908360ff16021790555060208201518160010155604082015181600201556060820151816003015560808201518160040155905050505050505050565b600c5481565b600080600080600080600f6000601060009054906101000a900460ff1660ff1660ff1681526020019081526020016000206040518060a00160405290816000820160009054906101000a900460ff1660ff1660ff16815260200160018201548152602001600282015481526020016003820154815260200160048201548152505090508060000151955080602001519450806040015193508060600151925080608001519150509091929394565b61130b33611825565b6000600560003373ffffffffffffffffffffffffffffffffffffffff1673ffffffffffffffffffffffffffffffffffffffff1681526020019081526020016000206000015490506000811161135f57600080fd5b6000600560003373ffffffffffffffffffffffffffffffffffffffff1673ffffffffffffffffffffffffffffffffffffffff1681526020019081526020016000206000018190555050565b60008054906101000a900473ffffffffffffffffffffffffffffffffffffffff1673ffffffffffffffffffffffffffffffffffffffff163373ffffffffffffffffffffffffffffffffffffffff161461140257600080fd5b600073ffffffffffffffffffffffffffffffffffffffff168173ffffffffffffffffffffffffffffffffffffffff16141561143c57600080fd5b8073ffffffffffffffffffffffffffffffffffffffff1660008054906101000a900473ffffffffffffffffffffffffffffffffffffffff1673ffffffffffffffffffffffffffffffffffffffff167f0384899bd253d83b23daa4d29aaa2efe0563d1132b43101e9ad667235aeb951b60405160405180910390a3806000806101000a81548173ffffffffffffffffffffffffffffffffffffffff021916908373ffffffffffffffffffffffffffffffffffffffff16021790555050565b60008054906101000a900473ffffffffffffffffffffffffffffffffffffffff1673ffffffffffffffffffffffffffffffffffffffff163373ffffffffffffffffffffffffffffffffffffffff161461155157600080fd5b80600b60008473ffffffffffffffffffffffffffffffffffffffff1673ffffffffffffffffffffffffffffffffffffffff16815260200190815260200160002060006101000a81548160ff0219169083151502179055508173ffffffffffffffffffffffffffffffffffffffff167f8daaf060c3306c38e068a75c054bf96ecd85a3db1252712c4d93632744c42e0d826040516115ee91906123a5565b60405180910390a25050565b60075481565b600080828461160f9190612570565b905083811015611648577f4e487b7100000000000000000000000000000000000000000000000000000000600052600160045260246000fd5b8091505092915050565b600033905090565b600073ffffffffffffffffffffffffffffffffffffffff168373ffffffffffffffffffffffffffffffffffffffff1614156116ca576040517f08c379a00000000000000000000000000000000000000000000000000000000081526004016116c190612482565b60405180910390fd5b600073ffffffffffffffffffffffffffffffffffffffff168273ffffffffffffffffffffffffffffffffffffffff16141561173a576040517f08c379a000000000000000000000000000000000000000000000000000000000815260040161173190612402565b60405180910390fd5b80600260008573ffffffffffffffffffffffffffffffffffffffff1673ffffffffffffffffffffffffffffffffffffffff16815260200190815260200160002060008473ffffffffffffffffffffffffffffffffffffffff1673ffffffffffffffffffffffffffffffffffffffff168152602001908152602001600020819055508173ffffffffffffffffffffffffffffffffffffffff168373ffffffffffffffffffffffffffffffffffffffff167f8c5be1e5ebec7d5bd14f71427d1e84f3dd0314c0f7b2291e5b200ac8c7c3b9258360405161181891906124a2565b60405180910390a3505050565b600061183082610f25565b9050600654600560008473ffffffffffffffffffffffffffffffffffffffff1673ffffffffffffffffffffffffffffffffffffffff16815260200190815260200160002060010181905550600081111561193b5761189981600754611b7590919063ffffffff16565b6007819055506118f481600560008573ffffffffffffffffffffffffffffffffffffffff1673ffffffffffffffffffffffffffffffffffffffff1681526020019081526020016000206000015461160090919063ffffffff16565b600560008473ffffffffffffffffffffffffffffffffffffffff1673ffffffffffffffffffffffffffffffffffffffff168152602001908152602001600020600001819055505b5050565b600061194c848484611c4c565b6000600260008673ffffffffffffffffffffffffffffffffffffffff1673ffffffffffffffffffffffffffffffffffffffff1681526020019081526020016000206000611997611652565b73ffffffffffffffffffffffffffffffffffffffff1673ffffffffffffffffffffffffffffffffffffffff16815260200190815260200160002054905082811015611a17576040517f08c379a0000000000000000000000000000000000000000000000000000000008152600401611a0e90612442565b60405180910390fd5b611a2b85611a23611652565b85840361165a565b60019150509392505050565b6000611a4b611a44611652565b8484611c4c565b6001905092915050565b60008111611a6257600080fd5b611ab481600160008573ffffffffffffffffffffffffffffffffffffffff1673ffffffffffffffffffffffffffffffffffffffff1681526020019081526020016000205461160090919063ffffffff16565b600160008473ffffffffffffffffffffffffffffffffffffffff1673ffffffffffffffffffffffffffffffffffffffff16815260200190815260200160002081905550611b0c8160035461160090919063ffffffff16565b600381905550600c546003541115611b2357600080fd5b8173ffffffffffffffffffffffffffffffffffffffff167f7b47457f3af09e5f794b020fd74160963a808f5985883496a096d403d380c34382604051611b6991906124a2565b60405180910390a25050565b600082821115611bae577f4e487b7100000000000000000000000000000000000000000000000000000000600052600160045260246000fd5b8183611bba9190612688565b905092915050565b600080831415611bd55760009050611c2b565b60008284611be3919061262e565b9050828482611bf291906125fd565b14611c26577f4e487b7100000000000000000000000000000000000000000000000000000000600052600160045260246000fd5b809150505b92915050565b6000808284611c4091906125fd565b90508091505092915050565b600073ffffffffffffffffffffffffffffffffffffffff168373ffffffffffffffffffffffffffffffffffffffff161415611cbc576040517f08c379a0000000000000000000000000000000000000000000000000000000008152600401611cb390612462565b60405180910390fd5b600073ffffffffffffffffffffffffffffffffffffffff168273ffffffffffffffffffffffffffffffffffffffff161415611d2c576040517f08c379a0000000000000000000000000000000000000000000000000000000008152600401611d23906123e2565b60405180910390fd5b6000600160008573ffffffffffffffffffffffffffffffffffffffff1673ffffffffffffffffffffffffffffffffffffffff16815260200190815260200160002054905081811015611db3576040517f08c379a0000000000000000000000000000000000000000000000000000000008152600401611daa90612422565b60405180910390fd5b818103600160008673ffffffffffffffffffffffffffffffffffffffff1673ffffffffffffffffffffffffffffffffffffffff1681526020019081526020016000208190555081600160008573ffffffffffffffffffffffffffffffffffffffff1673ffffffffffffffffffffffffffffffffffffffff1681526020019081526020016000206000828254611e489190612570565b925050819055508273ffffffffffffffffffffffffffffffffffffffff168473ffffffffffffffffffffffffffffffffffffffff167fddf252ad1be2c89b69c2b068fc378daa952ba7f163c4a11628f55a4df523b3ef84604051611eac91906124a2565b60405180910390a350505050565b600081359050611ec981612814565b92915050565b600081359050611ede8161282b565b92915050565b600081359050611ef381612842565b92915050565b600060208284031215611f0b57600080fd5b6000611f1984828501611eba565b91505092915050565b60008060408385031215611f3557600080fd5b6000611f4385828601611eba565b9250506020611f5485828601611eba565b9150509250929050565b600080600060608486031215611f7357600080fd5b6000611f8186828701611eba565b9350506020611f9286828701611eba565b9250506040611fa386828701611ee4565b9150509250925092565b60008060408385031215611fc057600080fd5b6000611fce85828601611eba565b9250506020611fdf85828601611ecf565b9150509250929050565b60008060408385031215611ffc57600080fd5b600061200a85828601611eba565b925050602061201b85828601611ee4565b9150509250929050565b60006020828403121561203757600080fd5b600061204584828501611ecf565b91505092915050565b6000806000806080858703121561206457600080fd5b600061207287828801611ee4565b945050602061208387828801611ee4565b935050604061209487828801611ee4565b92505060606120a587828801611ee4565b91505092959194509250565b6120ba816126bc565b82525050565b6120c9816126ce565b82525050565b60006120da82612554565b6120e4818561255f565b93506120f4818560208601612711565b6120fd81612803565b840191505092915050565b600061211560238361255f565b91507f45524332303a207472616e7366657220746f20746865207a65726f206164647260008301527f65737300000000000000000000000000000000000000000000000000000000006020830152604082019050919050565b600061217b60228361255f565b91507f45524332303a20617070726f766520746f20746865207a65726f20616464726560008301527f73730000000000000000000000000000000000000000000000000000000000006020830152604082019050919050565b60006121e160268361255f565b91507f45524332303a207472616e7366657220616d6f756e742065786365656473206260008301527f616c616e636500000000000000000000000000000000000000000000000000006020830152604082019050919050565b600061224760288361255f565b91507f45524332303a207472616e7366657220616d6f756e742065786365656473206160008301527f6c6c6f77616e63650000000000000000000000000000000000000000000000006020830152604082019050919050565b60006122ad60258361255f565b91507f45524332303a207472616e736665722066726f6d20746865207a65726f20616460008301527f64726573730000000000000000000000000000000000000000000000000000006020830152604082019050919050565b600061231360248361255f565b91507f45524332303a20617070726f76652066726f6d20746865207a65726f2061646460008301527f72657373000000000000000000000000000000000000000000000000000000006020830152604082019050919050565b612375816126fa565b82525050565b61238481612704565b82525050565b600060208201905061239f60008301846120b1565b92915050565b60006020820190506123ba60008301846120c0565b92915050565b600060208201905081810360008301526123da81846120cf565b905092915050565b600060208201905081810360008301526123fb81612108565b9050919050565b6000602082019050818103600083015261241b8161216e565b9050919050565b6000602082019050818103600083015261243b816121d4565b9050919050565b6000602082019050818103600083015261245b8161223a565b9050919050565b6000602082019050818103600083015261247b816122a0565b9050919050565b6000602082019050818103600083015261249b81612306565b9050919050565b60006020820190506124b7600083018461236c565b92915050565b60006040820190506124d2600083018561236c565b6124df602083018461236c565b9392505050565b60006020820190506124fb600083018461237b565b92915050565b600060a082019050612516600083018861237b565b612523602083018761236c565b612530604083018661236c565b61253d606083018561236c565b61254a608083018461236c565b9695505050505050565b600081519050919050565b600082825260208201905092915050565b600061257b826126fa565b9150612586836126fa565b9250827fffffffffffffffffffffffffffffffffffffffffffffffffffffffffffffffff038211156125bb576125ba612776565b5b828201905092915050565b60006125d182612704565b91506125dc83612704565b92508260ff038211156125f2576125f1612776565b5b828201905092915050565b6000612608826126fa565b9150612613836126fa565b925082612623576126226127a5565b5b828204905092915050565b6000612639826126fa565b9150612644836126fa565b9250817fffffffffffffffffffffffffffffffffffffffffffffffffffffffffffffffff048311821515161561267d5761267c612776565b5b828202905092915050565b6000612693826126fa565b915061269e836126fa565b9250828210156126b1576126b0612776565b5b828203905092915050565b60006126c7826126da565b9050919050565b60008115159050919050565b600073ffffffffffffffffffffffffffffffffffffffff82169050919050565b6000819050919050565b600060ff82169050919050565b60005b8381101561272f578082015181840152602081019050612714565b8381111561273e576000848401525b50505050565b6000600282049050600182168061275c57607f821691505b602082108114156127705761276f6127d4565b5b50919050565b7f4e487b7100000000000000000000000000000000000000000000000000000000600052601160045260246000fd5b7f4e487b7100000000000000000000000000000000000000000000000000000000600052601260045260246000fd5b7f4e487b7100000000000000000000000000000000000000000000000000000000600052602260045260246000fd5b6000601f19601f8301169050919050565b61281d816126bc565b811461282857600080fd5b50565b612834816126ce565b811461283f57600080fd5b50565b61284b816126fa565b811461285657600080fd5b5056fea2646970667358221220ef1046ab64dbce267981c22609c8008021e70b7a7f553a30aa6aefe5a97d3b4e64736f6c63430008000033",
  "immutableReferences": {},
  "source": "// SPDX-License-Identifier: MIT\r\n\r\npragma solidity ^0.8.0;\r\n\r\nimport './Ownable.sol';\r\nimport './SafeMath.sol';\r\nimport './RoyaltyToken.sol';\r\n\r\ncontract Q2 is Ownable, RoyaltyToken {\r\n  using SafeMath for uint256;\r\n\r\n  string public name = \"Q2\";\r\n  string public symbol = \"Q2\";\r\n  uint8 public decimals = 18;\r\n\r\n  bool public whitelist = true;\r\n\r\n  // whitelist addresses\r\n  mapping(address => bool) public whitelistedAddresses;\r\n\r\n  // token creation cap\r\n  uint256 public creationCap = 15000000 * (10 ** 18); // 15M\r\n  uint256 public reservedFund = 10000000 * (10 ** 18); // 10M\r\n\r\n  // stage info\r\n  struct Stage {\r\n    uint8 number;\r\n    uint256 exchangeRate;\r\n    uint256 startBlock;\r\n    uint256 endBlock;\r\n    uint256 cap;\r\n  }\r\n\r\n  // events\r\n  event MintTokens(address indexed _to, uint256 _value);\r\n  event StageStarted(uint8 _stage, uint256 _totalSupply, uint256 _balance);\r\n  event StageEnded(uint8 _stage, uint256 _totalSupply, uint256 _balance);\r\n  event WhitelistStatusChanged(address indexed _address, bool status);\r\n  event WhitelistChanged(bool status);\r\n\r\n  // eth wallet\r\n  address public ethWallet;\r\n  mapping (uint8 => Stage) stages;\r\n\r\n  // current state info\r\n  uint8 public currentStage;\r\n\r\n constructor(address _ethWallet){\r\n    ethWallet = _ethWallet;\r\n\r\n    // reserved tokens\r\n    mintTokens(ethWallet, reservedFund);\r\n  }\r\n\r\n  function mintTokens(address to, uint256 value) internal {\r\n    require(value > 0);\r\n    _balances[to] = _balances[to].add(value);\r\n     _totalSupply = _totalSupply.add(value);\r\n     require(_totalSupply <= creationCap);\r\n\r\n    // broadcast event\r\n    emit MintTokens(to, value);\r\n  }\r\n\r\n  \r\n\r\n  function buyTokens() public payable {\r\n    require(whitelist==false || whitelistedAddresses[msg.sender] == true);\r\n    require(msg.value > 0);\r\n\r\n    Stage memory stage = stages[currentStage];\r\n    require(block.number >= stage.startBlock && block.number <= stage.endBlock);\r\n\r\n    uint256 tokens = msg.value * stage.exchangeRate;\r\n   // require(totalSupply.add(tokens) <= stage.cap);\r\n\r\n    mintTokens(msg.sender, tokens);\r\n  }\r\n\r\n  function startStage(\r\n    uint256 _exchangeRate,\r\n    uint256 _cap,\r\n    uint256 _startBlock,\r\n    uint256 _endBlock\r\n  ) public onlyOwner {\r\n    require(_exchangeRate > 0 && _cap > 0);\r\n    require(_startBlock > block.number);\r\n    require(_startBlock < _endBlock);\r\n\r\n    // stop current stage if it's running\r\n    Stage memory currentObj = stages[currentStage];\r\n    if (currentObj.endBlock > 0) {\r\n      // broadcast stage end event\r\n    //  emit StageEnded(currentStage, totalSupply, address(this).balance);\r\n    }\r\n\r\n    // increment current stage\r\n    currentStage = currentStage + 1;\r\n\r\n    // create new stage object\r\n    Stage memory s = Stage({\r\n      number: currentStage,\r\n      startBlock: _startBlock,\r\n      endBlock: _endBlock,\r\n      exchangeRate: _exchangeRate,\r\n      cap: _cap + 0\r\n    });\r\n    stages[currentStage] = s;\r\n\r\n    // broadcast stage started event\r\n //   emit StageStarted(currentStage, totalSupply, address(this).balance);\r\n  }\r\n\r\n  function withdraw() public onlyOwner {\r\n    //ethWallet.transfer(address(this).balance);\r\n  }\r\n\r\n  function getCurrentStage() view public returns (\r\n    uint8 number,\r\n    uint256 exchangeRate,\r\n    uint256 startBlock,\r\n    uint256 endBlock,\r\n    uint256 cap\r\n  ) {\r\n    Stage memory currentObj = stages[currentStage];\r\n    number = currentObj.number;\r\n    exchangeRate = currentObj.exchangeRate;\r\n    startBlock = currentObj.startBlock;\r\n    endBlock = currentObj.endBlock;\r\n    cap = currentObj.cap;\r\n  }\r\n\r\n  function changeWhitelistStatus(address _address, bool status) public onlyOwner {\r\n    whitelistedAddresses[_address] = status;\r\n    emit WhitelistStatusChanged(_address, status);\r\n  }\r\n\r\n  function changeRestrictedtStatus(address _address, bool status) public onlyOwner {\r\n    restrictedAddresses[_address] = status;\r\n    emit RestrictedStatusChanged(_address, status);\r\n  }\r\n  \r\n  function changeWhitelist(bool status) public onlyOwner {\r\n     whitelist = status;\r\n     emit WhitelistChanged(status);\r\n  }\r\n}",
  "sourcePath": "/home/vishwakarma/Desktop/new_klaytn/contracts/Q2.sol",
  "compiler": {
    "name": "solc",
    "version": "0.8.0+commit.c7dfd78e.Emscripten.clang"
  },
  "schemaVersion": "3.4.1",
  "updatedAt": "2021-07-13T09:49:49.121Z",
  "networkType": "ethereum",
  "devdoc": {
    "kind": "dev",
    "methods": {
      "RoyaltysOwing(address)": {
        "params": {
          "account": "The address for Royalty account"
        }
      },
      "transfer(address,uint256)": {
        "details": "Send `_value` tokens to `_to` from your account",
        "params": {
          "_to": "The address of the recipient",
          "_value": "the amount to send"
        }
      },
      "transferFrom(address,address,uint256)": {
        "details": "Transfer tokens from other address. Send `_value` tokens to `_to` in behalf of `_from`",
        "params": {
          "_from": "The address of the sender",
          "_to": "The address of the recipient",
          "_value": "the amount to send"
        }
      },
      "transferOwnership(address)": {
        "details": "Allows the current owner to transfer control of the contract to a newOwner.",
        "params": {
          "newOwner": "The address to transfer ownership to."
        }
      }
    },
    "version": 1
  },
  "userdoc": {
    "kind": "user",
    "methods": {
      "RoyaltysOwing(address)": {
        "notice": "Get Royalty amount for given account"
      }
    },
    "version": 1
  }
}