{
  "contractName": "Quarters",
  "abi": [
    {
      "inputs": [
        {
          "internalType": "address",
          "name": "_q2",
          "type": "address"
        },
        {
          "internalType": "uint256",
          "name": "firstTranche",
          "type": "uint256"
        }
      ],
      "stateMutability": "nonpayable",
      "type": "constructor"
    },
    {
      "anonymous": false,
      "inputs": [
        {
          "indexed": true,
          "internalType": "address",
          "name": "owner",
          "type": "address"
        },
        {
          "indexed": true,
          "internalType": "address",
          "name": "spender",
          "type": "address"
        },
        {
          "indexed": false,
          "internalType": "uint256",
          "name": "value",
          "type": "uint256"
        }
      ],
      "name": "Approval",
      "type": "event"
    },
    {
      "anonymous": false,
      "inputs": [
        {
          "indexed": false,
          "internalType": "uint256",
          "name": "_baseRate",
          "type": "uint256"
        },
        {
          "indexed": false,
          "internalType": "uint256",
          "name": "_tranche",
          "type": "uint256"
        },
        {
          "indexed": false,
          "internalType": "uint256",
          "name": "_outstandingQuarters",
          "type": "uint256"
        },
        {
          "indexed": false,
          "internalType": "uint256",
          "name": "_etherPool",
          "type": "uint256"
        },
        {
          "indexed": false,
          "internalType": "uint256",
          "name": "_totalSupply",
          "type": "uint256"
        }
      ],
      "name": "BaseRateChanged",
      "type": "event"
    },
    {
      "anonymous": false,
      "inputs": [
        {
          "indexed": true,
          "internalType": "address",
          "name": "from",
          "type": "address"
        },
        {
          "indexed": false,
          "internalType": "uint256",
          "name": "value",
          "type": "uint256"
        }
      ],
      "name": "Burn",
      "type": "event"
    },
    {
      "anonymous": false,
      "inputs": [
        {
          "indexed": true,
          "internalType": "address",
          "name": "developer",
          "type": "address"
        },
        {
          "indexed": false,
          "internalType": "bool",
          "name": "status",
          "type": "bool"
        }
      ],
      "name": "DeveloperStatusChanged",
      "type": "event"
    },
    {
      "anonymous": false,
      "inputs": [
        {
          "indexed": false,
          "internalType": "uint16",
          "name": "currentRate",
          "type": "uint16"
        },
        {
          "indexed": false,
          "internalType": "uint16",
          "name": "newRate",
          "type": "uint16"
        }
      ],
      "name": "EthRateChanged",
      "type": "event"
    },
    {
      "anonymous": false,
      "inputs": [
        {
          "indexed": true,
          "internalType": "address",
          "name": "developer",
          "type": "address"
        },
        {
          "indexed": false,
          "internalType": "uint256",
          "name": "value",
          "type": "uint256"
        },
        {
          "indexed": false,
          "internalType": "uint256",
          "name": "_baseRate",
          "type": "uint256"
        },
        {
          "indexed": false,
          "internalType": "uint256",
          "name": "_tranche",
          "type": "uint256"
        },
        {
          "indexed": false,
          "internalType": "uint256",
          "name": "_outstandingQuarters",
          "type": "uint256"
        },
        {
          "indexed": false,
          "internalType": "uint256",
          "name": "_etherPool",
          "type": "uint256"
        }
      ],
      "name": "MegaEarnings",
      "type": "event"
    },
    {
      "anonymous": false,
      "inputs": [
        {
          "indexed": true,
          "internalType": "address",
          "name": "_from",
          "type": "address"
        },
        {
          "indexed": false,
          "internalType": "uint256",
          "name": "_value",
          "type": "uint256"
        }
      ],
      "name": "Migrate",
      "type": "event"
    },
    {
      "anonymous": false,
      "inputs": [
        {
          "indexed": true,
          "internalType": "address",
          "name": "oldOwner",
          "type": "address"
        },
        {
          "indexed": true,
          "internalType": "address",
          "name": "newOwner",
          "type": "address"
        }
      ],
      "name": "OwnershipChanged",
      "type": "event"
    },
    {
      "anonymous": false,
      "inputs": [
        {
          "indexed": true,
          "internalType": "address",
          "name": "sender",
          "type": "address"
        },
        {
          "indexed": false,
          "internalType": "uint256",
          "name": "ethValue",
          "type": "uint256"
        },
        {
          "indexed": false,
          "internalType": "uint256",
          "name": "tokens",
          "type": "uint256"
        }
      ],
      "name": "QuartersOrdered",
      "type": "event"
    },
    {
      "anonymous": false,
      "inputs": [
        {
          "indexed": true,
          "internalType": "address",
          "name": "_address",
          "type": "address"
        },
        {
          "indexed": false,
          "internalType": "uint256",
          "name": "value",
          "type": "uint256"
        },
        {
          "indexed": false,
          "internalType": "uint256",
          "name": "_outstandingQuarters",
          "type": "uint256"
        },
        {
          "indexed": false,
          "internalType": "uint256",
          "name": "_totalSupply",
          "type": "uint256"
        }
      ],
      "name": "Reward",
      "type": "event"
    },
    {
      "anonymous": false,
      "inputs": [
        {
          "indexed": false,
          "internalType": "uint256",
          "name": "_tranche",
          "type": "uint256"
        },
        {
          "indexed": false,
          "internalType": "uint256",
          "name": "_etherPool",
          "type": "uint256"
        },
        {
          "indexed": false,
          "internalType": "uint256",
          "name": "_outstandingQuarters",
          "type": "uint256"
        }
      ],
      "name": "TrancheIncreased",
      "type": "event"
    },
    {
      "anonymous": false,
      "inputs": [
        {
          "indexed": true,
          "internalType": "address",
          "name": "from",
          "type": "address"
        },
        {
          "indexed": true,
          "internalType": "address",
          "name": "to",
          "type": "address"
        },
        {
          "indexed": false,
          "internalType": "uint256",
          "name": "value",
          "type": "uint256"
        }
      ],
      "name": "Transfer",
      "type": "event"
    },
    {
      "anonymous": false,
      "inputs": [
        {
          "indexed": true,
          "internalType": "address",
          "name": "developer",
          "type": "address"
        },
        {
          "indexed": false,
          "internalType": "uint256",
          "name": "value",
          "type": "uint256"
        },
        {
          "indexed": false,
          "internalType": "uint256",
          "name": "_baseRate",
          "type": "uint256"
        },
        {
          "indexed": false,
          "internalType": "uint256",
          "name": "_tranche",
          "type": "uint256"
        },
        {
          "indexed": false,
          "internalType": "uint256",
          "name": "_outstandingQuarters",
          "type": "uint256"
        },
        {
          "indexed": false,
          "internalType": "uint256",
          "name": "_etherPool",
          "type": "uint256"
        }
      ],
      "name": "Withdraw",
      "type": "event"
    },
    {
      "inputs": [
        {
          "internalType": "address",
          "name": "",
          "type": "address"
        },
        {
          "internalType": "address",
          "name": "",
          "type": "address"
        }
      ],
      "name": "_allowances",
      "outputs": [
        {
          "internalType": "uint256",
          "name": "",
          "type": "uint256"
        }
      ],
      "stateMutability": "view",
      "type": "function",
      "constant": true
    },
    {
      "inputs": [
        {
          "internalType": "address",
          "name": "",
          "type": "address"
        }
      ],
      "name": "_balances",
      "outputs": [
        {
          "internalType": "uint256",
          "name": "",
          "type": "uint256"
        }
      ],
      "stateMutability": "view",
      "type": "function",
      "constant": true
    },
    {
      "inputs": [],
      "name": "_totalSupply",
      "outputs": [
        {
          "internalType": "uint256",
          "name": "",
          "type": "uint256"
        }
      ],
      "stateMutability": "view",
      "type": "function",
      "constant": true
    },
    {
      "inputs": [
        {
          "internalType": "address",
          "name": "owner",
          "type": "address"
        },
        {
          "internalType": "address",
          "name": "spender",
          "type": "address"
        }
      ],
      "name": "allowance",
      "outputs": [
        {
          "internalType": "uint256",
          "name": "",
          "type": "uint256"
        }
      ],
      "stateMutability": "view",
      "type": "function",
      "constant": true
    },
    {
      "inputs": [
        {
          "internalType": "address",
          "name": "spender",
          "type": "address"
        },
        {
          "internalType": "uint256",
          "name": "amount",
          "type": "uint256"
        }
      ],
      "name": "approve",
      "outputs": [
        {
          "internalType": "bool",
          "name": "",
          "type": "bool"
        }
      ],
      "stateMutability": "nonpayable",
      "type": "function"
    },
    {
      "inputs": [
        {
          "internalType": "address",
          "name": "account",
          "type": "address"
        }
      ],
      "name": "balanceOf",
      "outputs": [
        {
          "internalType": "uint256",
          "name": "",
          "type": "uint256"
        }
      ],
      "stateMutability": "view",
      "type": "function",
      "constant": true
    },
    {
      "inputs": [],
      "name": "decimals",
      "outputs": [
        {
          "internalType": "uint8",
          "name": "",
          "type": "uint8"
        }
      ],
      "stateMutability": "view",
      "type": "function",
      "constant": true
    },
    {
      "inputs": [
        {
          "internalType": "address",
          "name": "",
          "type": "address"
        }
      ],
      "name": "developers",
      "outputs": [
        {
          "internalType": "bool",
          "name": "",
          "type": "bool"
        }
      ],
      "stateMutability": "view",
      "type": "function",
      "constant": true
    },
    {
      "inputs": [],
      "name": "ethRate",
      "outputs": [
        {
          "internalType": "uint16",
          "name": "",
          "type": "uint16"
        }
      ],
      "stateMutability": "view",
      "type": "function",
      "constant": true
    },
    {
      "inputs": [],
      "name": "large",
      "outputs": [
        {
          "internalType": "uint32",
          "name": "",
          "type": "uint32"
        }
      ],
      "stateMutability": "view",
      "type": "function",
      "constant": true
    },
    {
      "inputs": [],
      "name": "largeRate",
      "outputs": [
        {
          "internalType": "uint32",
          "name": "",
          "type": "uint32"
        }
      ],
      "stateMutability": "view",
      "type": "function",
      "constant": true
    },
    {
      "inputs": [],
      "name": "medium",
      "outputs": [
        {
          "internalType": "uint32",
          "name": "",
          "type": "uint32"
        }
      ],
      "stateMutability": "view",
      "type": "function",
      "constant": true
    },
    {
      "inputs": [],
      "name": "mediumRate",
      "outputs": [
        {
          "internalType": "uint32",
          "name": "",
          "type": "uint32"
        }
      ],
      "stateMutability": "view",
      "type": "function",
      "constant": true
    },
    {
      "inputs": [],
      "name": "mega",
      "outputs": [
        {
          "internalType": "uint32",
          "name": "",
          "type": "uint32"
        }
      ],
      "stateMutability": "view",
      "type": "function",
      "constant": true
    },
    {
      "inputs": [],
      "name": "megaRate",
      "outputs": [
        {
          "internalType": "uint32",
          "name": "",
          "type": "uint32"
        }
      ],
      "stateMutability": "view",
      "type": "function",
      "constant": true
    },
    {
      "inputs": [],
      "name": "microRate",
      "outputs": [
        {
          "internalType": "uint32",
          "name": "",
          "type": "uint32"
        }
      ],
      "stateMutability": "view",
      "type": "function",
      "constant": true
    },
    {
      "inputs": [],
      "name": "migrating",
      "outputs": [
        {
          "internalType": "bool",
          "name": "",
          "type": "bool"
        }
      ],
      "stateMutability": "view",
      "type": "function",
      "constant": true
    },
    {
      "inputs": [],
      "name": "migrationTarget",
      "outputs": [
        {
          "internalType": "address",
          "name": "",
          "type": "address"
        }
      ],
      "stateMutability": "view",
      "type": "function",
      "constant": true
    },
    {
      "inputs": [],
      "name": "name",
      "outputs": [
        {
          "internalType": "string",
          "name": "",
          "type": "string"
        }
      ],
      "stateMutability": "view",
      "type": "function",
      "constant": true
    },
    {
      "inputs": [],
      "name": "outstandingQuarters",
      "outputs": [
        {
          "internalType": "uint256",
          "name": "",
          "type": "uint256"
        }
      ],
      "stateMutability": "view",
      "type": "function",
      "constant": true
    },
    {
      "inputs": [],
      "name": "owner",
      "outputs": [
        {
          "internalType": "address",
          "name": "",
          "type": "address"
        }
      ],
      "stateMutability": "view",
      "type": "function",
      "constant": true
    },
    {
      "inputs": [],
      "name": "q2",
      "outputs": [
        {
          "internalType": "address",
          "name": "",
          "type": "address"
        }
      ],
      "stateMutability": "view",
      "type": "function",
      "constant": true
    },
    {
      "inputs": [],
      "name": "reserveETH",
      "outputs": [
        {
          "internalType": "uint256",
          "name": "",
          "type": "uint256"
        }
      ],
      "stateMutability": "view",
      "type": "function",
      "constant": true
    },
    {
      "inputs": [],
      "name": "rewardAmount",
      "outputs": [
        {
          "internalType": "uint256",
          "name": "",
          "type": "uint256"
        }
      ],
      "stateMutability": "view",
      "type": "function",
      "constant": true
    },
    {
      "inputs": [],
      "name": "rewardDenominator",
      "outputs": [
        {
          "internalType": "uint8",
          "name": "",
          "type": "uint8"
        }
      ],
      "stateMutability": "view",
      "type": "function",
      "constant": true
    },
    {
      "inputs": [],
      "name": "rewardNumerator",
      "outputs": [
        {
          "internalType": "uint8",
          "name": "",
          "type": "uint8"
        }
      ],
      "stateMutability": "view",
      "type": "function",
      "constant": true
    },
    {
      "inputs": [
        {
          "internalType": "address",
          "name": "",
          "type": "address"
        }
      ],
      "name": "rewards",
      "outputs": [
        {
          "internalType": "uint256",
          "name": "",
          "type": "uint256"
        }
      ],
      "stateMutability": "view",
      "type": "function",
      "constant": true
    },
    {
      "inputs": [],
      "name": "small",
      "outputs": [
        {
          "internalType": "uint32",
          "name": "",
          "type": "uint32"
        }
      ],
      "stateMutability": "view",
      "type": "function",
      "constant": true
    },
    {
      "inputs": [],
      "name": "smallRate",
      "outputs": [
        {
          "internalType": "uint32",
          "name": "",
          "type": "uint32"
        }
      ],
      "stateMutability": "view",
      "type": "function",
      "constant": true
    },
    {
      "inputs": [],
      "name": "symbol",
      "outputs": [
        {
          "internalType": "string",
          "name": "",
          "type": "string"
        }
      ],
      "stateMutability": "view",
      "type": "function",
      "constant": true
    },
    {
      "inputs": [],
      "name": "totalSupply",
      "outputs": [
        {
          "internalType": "uint256",
          "name": "",
          "type": "uint256"
        }
      ],
      "stateMutability": "view",
      "type": "function",
      "constant": true
    },
    {
      "inputs": [],
      "name": "tranche",
      "outputs": [
        {
          "internalType": "uint256",
          "name": "",
          "type": "uint256"
        }
      ],
      "stateMutability": "view",
      "type": "function",
      "constant": true
    },
    {
      "inputs": [],
      "name": "trancheDenominator",
      "outputs": [
        {
          "internalType": "uint8",
          "name": "",
          "type": "uint8"
        }
      ],
      "stateMutability": "view",
      "type": "function",
      "constant": true
    },
    {
      "inputs": [],
      "name": "trancheNumerator",
      "outputs": [
        {
          "internalType": "uint8",
          "name": "",
          "type": "uint8"
        }
      ],
      "stateMutability": "view",
      "type": "function",
      "constant": true
    },
    {
      "inputs": [
        {
          "internalType": "address",
          "name": "recipient",
          "type": "address"
        },
        {
          "internalType": "uint256",
          "name": "amount",
          "type": "uint256"
        }
      ],
      "name": "transfer",
      "outputs": [
        {
          "internalType": "bool",
          "name": "",
          "type": "bool"
        }
      ],
      "stateMutability": "nonpayable",
      "type": "function"
    },
    {
      "inputs": [
        {
          "internalType": "address",
          "name": "sender",
          "type": "address"
        },
        {
          "internalType": "address",
          "name": "recipient",
          "type": "address"
        },
        {
          "internalType": "uint256",
          "name": "amount",
          "type": "uint256"
        }
      ],
      "name": "transferFrom",
      "outputs": [
        {
          "internalType": "bool",
          "name": "",
          "type": "bool"
        }
      ],
      "stateMutability": "nonpayable",
      "type": "function"
    },
    {
      "inputs": [
        {
          "internalType": "address",
          "name": "newOwner",
          "type": "address"
        }
      ],
      "name": "transferOwnership",
      "outputs": [],
      "stateMutability": "nonpayable",
      "type": "function"
    },
    {
      "inputs": [
        {
          "internalType": "address",
          "name": "",
          "type": "address"
        }
      ],
      "name": "trueBuy",
      "outputs": [
        {
          "internalType": "uint256",
          "name": "",
          "type": "uint256"
        }
      ],
      "stateMutability": "view",
      "type": "function",
      "constant": true
    },
    {
      "stateMutability": "payable",
      "type": "receive",
      "payable": true
    },
    {
      "inputs": [
        {
          "internalType": "uint16",
          "name": "rate",
          "type": "uint16"
        }
      ],
      "name": "setEthRate",
      "outputs": [],
      "stateMutability": "nonpayable",
      "type": "function"
    },
    {
      "inputs": [
        {
          "internalType": "uint256",
          "name": "reward",
          "type": "uint256"
        }
      ],
      "name": "adjustReward",
      "outputs": [],
      "stateMutability": "nonpayable",
      "type": "function"
    },
    {
      "inputs": [
        {
          "internalType": "uint32",
          "name": "mega2",
          "type": "uint32"
        },
        {
          "internalType": "uint32",
          "name": "megaRate2",
          "type": "uint32"
        },
        {
          "internalType": "uint32",
          "name": "large2",
          "type": "uint32"
        },
        {
          "internalType": "uint32",
          "name": "largeRate2",
          "type": "uint32"
        },
        {
          "internalType": "uint32",
          "name": "medium2",
          "type": "uint32"
        },
        {
          "internalType": "uint32",
          "name": "mediumRate2",
          "type": "uint32"
        },
        {
          "internalType": "uint32",
          "name": "small2",
          "type": "uint32"
        },
        {
          "internalType": "uint32",
          "name": "smallRate2",
          "type": "uint32"
        },
        {
          "internalType": "uint32",
          "name": "microRate2",
          "type": "uint32"
        }
      ],
      "name": "adjustWithdrawRate",
      "outputs": [],
      "stateMutability": "nonpayable",
      "type": "function"
    },
    {
      "inputs": [
        {
          "internalType": "uint8",
          "name": "numerator",
          "type": "uint8"
        },
        {
          "internalType": "uint8",
          "name": "denominator",
          "type": "uint8"
        }
      ],
      "name": "adjustNextTranche",
      "outputs": [],
      "stateMutability": "nonpayable",
      "type": "function"
    },
    {
      "inputs": [
        {
          "internalType": "uint256",
          "name": "tranche2",
          "type": "uint256"
        }
      ],
      "name": "adjustTranche",
      "outputs": [],
      "stateMutability": "nonpayable",
      "type": "function"
    },
    {
      "inputs": [
        {
          "internalType": "address",
          "name": "_address",
          "type": "address"
        },
        {
          "internalType": "bool",
          "name": "status",
          "type": "bool"
        }
      ],
      "name": "setDeveloperStatus",
      "outputs": [],
      "stateMutability": "nonpayable",
      "type": "function"
    },
    {
      "inputs": [
        {
          "internalType": "address",
          "name": "_spender",
          "type": "address"
        },
        {
          "internalType": "uint256",
          "name": "_value",
          "type": "uint256"
        },
        {
          "internalType": "bytes",
          "name": "_extraData",
          "type": "bytes"
        }
      ],
      "name": "approveAndCall",
      "outputs": [
        {
          "internalType": "bool",
          "name": "success",
          "type": "bool"
        }
      ],
      "stateMutability": "nonpayable",
      "type": "function"
    },
    {
      "inputs": [
        {
          "internalType": "uint256",
          "name": "_value",
          "type": "uint256"
        }
      ],
      "name": "burn",
      "outputs": [
        {
          "internalType": "bool",
          "name": "success",
          "type": "bool"
        }
      ],
      "stateMutability": "nonpayable",
      "type": "function"
    },
    {
      "inputs": [
        {
          "internalType": "address",
          "name": "_from",
          "type": "address"
        },
        {
          "internalType": "uint256",
          "name": "_value",
          "type": "uint256"
        }
      ],
      "name": "burnFrom",
      "outputs": [
        {
          "internalType": "bool",
          "name": "success",
          "type": "bool"
        }
      ],
      "stateMutability": "nonpayable",
      "type": "function"
    },
    {
      "inputs": [],
      "name": "buy",
      "outputs": [],
      "stateMutability": "payable",
      "type": "function",
      "payable": true
    },
    {
      "inputs": [
        {
          "internalType": "address",
          "name": "buyer",
          "type": "address"
        }
      ],
      "name": "buyFor",
      "outputs": [],
      "stateMutability": "payable",
      "type": "function",
      "payable": true
    },
    {
      "inputs": [
        {
          "internalType": "address",
          "name": "_from",
          "type": "address"
        },
        {
          "internalType": "address",
          "name": "_to",
          "type": "address"
        },
        {
          "internalType": "uint256",
          "name": "_value",
          "type": "uint256"
        }
      ],
      "name": "transferAllowance",
      "outputs": [
        {
          "internalType": "bool",
          "name": "success",
          "type": "bool"
        }
      ],
      "stateMutability": "nonpayable",
      "type": "function"
    },
    {
      "inputs": [
        {
          "internalType": "uint256",
          "name": "value",
          "type": "uint256"
        }
      ],
      "name": "withdraw",
      "outputs": [],
      "stateMutability": "nonpayable",
      "type": "function"
    },
    {
      "inputs": [],
      "name": "disburse",
      "outputs": [],
      "stateMutability": "payable",
      "type": "function",
      "payable": true
    },
    {
      "inputs": [],
      "name": "getBaseRate",
      "outputs": [
        {
          "internalType": "uint256",
          "name": "",
          "type": "uint256"
        }
      ],
      "stateMutability": "view",
      "type": "function",
      "constant": true
    },
    {
      "inputs": [
        {
          "internalType": "uint256",
          "name": "value",
          "type": "uint256"
        }
      ],
      "name": "getRate",
      "outputs": [
        {
          "internalType": "uint32",
          "name": "",
          "type": "uint32"
        }
      ],
      "stateMutability": "view",
      "type": "function",
      "constant": true
    },
    {
      "inputs": [],
      "name": "migrate",
      "outputs": [],
      "stateMutability": "nonpayable",
      "type": "function"
    },
    {
      "inputs": [
        {
          "internalType": "address",
          "name": "_target",
          "type": "address"
        }
      ],
      "name": "setMigrationTarget",
      "outputs": [],
      "stateMutability": "nonpayable",
      "type": "function"
    }
  ],
  "bytecode": "0x60806040526040518060400160405280600881526020017f517561727465727300000000000000000000000000000000000000000000000081525060049080519060200190620000519291906200036d565b506040518060400160405280600181526020017f5100000000000000000000000000000000000000000000000000000000000000815250600590805190602001906200009f9291906200036d565b506000600660006101000a81548160ff021916908360ff160217905550610fa0600660016101000a81548161ffff021916908361ffff160217905550619c406007556002600a60146101000a81548160ff021916908360ff1602179055506001600a60156101000a81548160ff021916908360ff1602179055506014600a60166101000a81548163ffffffff021916908363ffffffff1602179055506073600a601a6101000a81548163ffffffff021916908363ffffffff1602179055506064600b60006101000a81548163ffffffff021916908363ffffffff160217905550605a600b60046101000a81548163ffffffff021916908363ffffffff1602179055506107d0600b60086101000a81548163ffffffff021916908363ffffffff160217905550604b600b600c6101000a81548163ffffffff021916908363ffffffff16021790555061c350600b60106101000a81548163ffffffff021916908363ffffffff1602179055506032600b60146101000a81548163ffffffff021916908363ffffffff1602179055506019600b60186101000a81548163ffffffff021916908363ffffffff1602179055506028600e556001600f60006101000a81548160ff021916908360ff1602179055506004600f60016101000a81548160ff021916908360ff16021790555060006010556000601160146101000a81548160ff021916908315150217905550348015620002b757600080fd5b5060405162004ac738038062004ac78339818101604052810190620002dd91906200044b565b336000806101000a81548173ffffffffffffffffffffffffffffffffffffffff021916908373ffffffffffffffffffffffffffffffffffffffff16021790555081600a60006101000a81548173ffffffffffffffffffffffffffffffffffffffff021916908373ffffffffffffffffffffffffffffffffffffffff16021790555080600781905550505062000563565b8280546200037b90620004ca565b90600052602060002090601f0160209004810192826200039f5760008555620003eb565b82601f10620003ba57805160ff1916838001178555620003eb565b82800160010185558215620003eb579182015b82811115620003ea578251825591602001919060010190620003cd565b5b509050620003fa9190620003fe565b5090565b5b8082111562000419576000816000905550600101620003ff565b5090565b6000815190506200042e816200052f565b92915050565b600081519050620004458162000549565b92915050565b600080604083850312156200045f57600080fd5b60006200046f858286016200041d565b9250506020620004828582860162000434565b9150509250929050565b60006200049982620004a0565b9050919050565b600073ffffffffffffffffffffffffffffffffffffffff82169050919050565b6000819050919050565b60006002820490506001821680620004e357607f821691505b60208210811415620004fa57620004f962000500565b5b50919050565b7f4e487b7100000000000000000000000000000000000000000000000000000000600052602260045260246000fd5b6200053a816200048c565b81146200054657600080fd5b50565b6200055481620004c0565b81146200056057600080fd5b50565b61455480620005736000396000f3fe60806040526004361061036f5760003560e01c806370a08231116101c6578063b655d0c4116100f7578063d2d93f9011610095578063ed1923ee1161006f578063ed1923ee14610cda578063f2fde38b14610d05578063f7b2a7be14610d2e578063fd2dba2f14610d5957610380565b8063d2d93f9014610c49578063dd62ed3e14610c74578063df23128f14610cb157610380565b8063c5f98a3f116100d1578063c5f98a3f14610b79578063cae9ca5114610ba4578063cbd2ecd214610be1578063cdd432d014610c1e57610380565b8063b655d0c414610afa578063c231bace14610b25578063c50bd2e414610b4e57610380565b806395d89b4111610164578063a6f2ae3a1161013e578063a6f2ae3a14610a7e578063a9059cbb14610a88578063abc6fd0b14610ac5578063b5c47f6914610acf57610380565b806395d89b41146109fd57806397ccd07b14610a28578063a404f29114610a5357610380565b806384533794116101a057806384533794146109675780638509a001146109905780638da5cb5b146109bb5780638fd3ab80146109e657610380565b806370a08231146108c4578063716d3c6c1461090157806379cc67901461092a57610380565b806342767018116102a05780635b51acff1161023e5780636cf3c25e116102185780636cf3c25e146108155780636ebc0af1146108405780636ebcf6071461086b5780636f0b5180146108a857610380565b80635b51acff1461078457806361fd5c20146107af5780636433ef42146107ec57610380565b8063528120531161027a57806352812053146106c85780635615f415146106f3578063577640941461071e5780635a19c2011461075b57610380565b8063427670181461063557806342966c68146106605780634956cf1c1461069d57610380565b806317b1d17c1161030d57806323b872dd116102e757806323b872dd146105795780632e1a7d4d146105b6578063313ce567146105df5780633eaaf86b1461060a57610380565b806317b1d17c146104e657806318160ddd146105235780631a833d3f1461054e57610380565b8063095ea7b311610349578063095ea7b31461042a5780630d3ade7314610467578063100af2031461049057806312987c98146104bb57610380565b8063024c2ddd1461038557806306fdde03146103c25780630700037d146103ed57610380565b366103805761037d33610d84565b50005b600080fd5b34801561039157600080fd5b506103ac60048036038101906103a79190613845565b61103a565b6040516103b9919061402e565b60405180910390f35b3480156103ce57600080fd5b506103d761105f565b6040516103e49190613f08565b60405180910390f35b3480156103f957600080fd5b50610414600480360381019061040f919061381c565b6110ed565b604051610421919061402e565b60405180910390f35b34801561043657600080fd5b50610451600480360381019061044c919061390c565b611105565b60405161045e9190613eed565b60405180910390f35b34801561047357600080fd5b5061048e60048036038101906104899190613ac7565b611123565b005b34801561049c57600080fd5b506104a56111d4565b6040516104b2919061402e565b60405180910390f35b3480156104c757600080fd5b506104d06111da565b6040516104dd91906140fc565b60405180910390f35b3480156104f257600080fd5b5061050d6004803603810190610508919061381c565b6111f0565b60405161051a919061402e565b60405180910390f35b34801561052f57600080fd5b50610538611208565b604051610545919061402e565b60405180910390f35b34801561055a57600080fd5b50610563611212565b6040516105709190614117565b60405180910390f35b34801561058557600080fd5b506105a0600480360381019061059b9190613881565b611225565b6040516105ad9190613eed565b60405180910390f35b3480156105c257600080fd5b506105dd60048036038101906105d891906139d8565b61131e565b005b3480156105eb57600080fd5b506105f461169c565b6040516106019190614117565b60405180910390f35b34801561061657600080fd5b5061061f6116af565b60405161062c919061402e565b60405180910390f35b34801561064157600080fd5b5061064a6116b5565b60405161065791906140fc565b60405180910390f35b34801561066c57600080fd5b50610687600480360381019061068291906139d8565b6116cb565b6040516106949190613eed565b60405180910390f35b3480156106a957600080fd5b506106b2611844565b6040516106bf9190613eed565b60405180910390f35b3480156106d457600080fd5b506106dd611857565b6040516106ea919061402e565b60405180910390f35b3480156106ff57600080fd5b5061070861185d565b6040516107159190613e33565b60405180910390f35b34801561072a57600080fd5b50610745600480360381019061074091906139d8565b611883565b60405161075291906140fc565b60405180910390f35b34801561076757600080fd5b50610782600480360381019061077d91906138d0565b6119bc565b005b34801561079057600080fd5b50610799611abd565b6040516107a69190613e33565b60405180910390f35b3480156107bb57600080fd5b506107d660048036038101906107d1919061381c565b611ae3565b6040516107e39190613eed565b60405180910390f35b3480156107f857600080fd5b50610813600480360381019061080e9190613a01565b611b03565b005b34801561082157600080fd5b5061082a611d27565b60405161083791906140fc565b60405180910390f35b34801561084c57600080fd5b50610855611d3d565b604051610862919061402e565b60405180910390f35b34801561087757600080fd5b50610892600480360381019061088d919061381c565b611d43565b60405161089f919061402e565b60405180910390f35b6108c260048036038101906108bd919061381c565b611d5b565b005b3480156108d057600080fd5b506108eb60048036038101906108e6919061381c565b611e64565b6040516108f8919061402e565b60405180910390f35b34801561090d57600080fd5b50610928600480360381019061092391906139d8565b611ead565b005b34801561093657600080fd5b50610951600480360381019061094c919061390c565b611f0f565b60405161095e9190613eed565b60405180910390f35b34801561097357600080fd5b5061098e600480360381019061098991906139af565b6121a5565b005b34801561099c57600080fd5b506109a5612277565b6040516109b29190614117565b60405180910390f35b3480156109c757600080fd5b506109d061228a565b6040516109dd9190613e33565b60405180910390f35b3480156109f257600080fd5b506109fb6122ae565b005b348015610a0957600080fd5b50610a126126d4565b604051610a1f9190613f08565b60405180910390f35b348015610a3457600080fd5b50610a3d612762565b604051610a4a91906140fc565b60405180910390f35b348015610a5f57600080fd5b50610a68612778565b604051610a7591906140fc565b60405180910390f35b610a8661278e565b005b348015610a9457600080fd5b50610aaf6004803603810190610aaa919061390c565b61279a565b604051610abc9190613eed565b60405180910390f35b610acd6127b9565b005b348015610adb57600080fd5b50610ae46127d4565b604051610af191906140fc565b60405180910390f35b348015610b0657600080fd5b50610b0f6127ea565b604051610b1c919061402e565b60405180910390f35b348015610b3157600080fd5b50610b4c6004803603810190610b47919061381c565b61282c565b005b348015610b5a57600080fd5b50610b636128c8565b604051610b709190614117565b60405180910390f35b348015610b8557600080fd5b50610b8e6128db565b604051610b9b91906140fc565b60405180910390f35b348015610bb057600080fd5b50610bcb6004803603810190610bc69190613948565b6128f1565b604051610bd89190613eed565b60405180910390f35b348015610bed57600080fd5b50610c086004803603810190610c039190613881565b61298e565b604051610c159190613eed565b60405180910390f35b348015610c2a57600080fd5b50610c33612bd2565b604051610c409190614117565b60405180910390f35b348015610c5557600080fd5b50610c5e612be5565b604051610c6b9190613fea565b60405180910390f35b348015610c8057600080fd5b50610c9b6004803603810190610c969190613845565b612bf9565b604051610ca8919061402e565b60405180910390f35b348015610cbd57600080fd5b50610cd86004803603810190610cd391906139d8565b612c80565b005b348015610ce657600080fd5b50610cef612cef565b604051610cfc91906140fc565b60405180910390f35b348015610d1157600080fd5b50610d2c6004803603810190610d27919061381c565b612d05565b005b348015610d3a57600080fd5b50610d43612e54565b604051610d50919061402e565b60405180910390f35b348015610d6557600080fd5b50610d6e612e5a565b604051610d7b91906140fc565b60405180910390f35b60008073ffffffffffffffffffffffffffffffffffffffff168273ffffffffffffffffffffffffffffffffffffffff161415610dbf57600080fd5b6000670de0b6b3a7640000600660019054906101000a900461ffff1661ffff1634610dea9190614252565b610df49190614221565b90506000811415610e0457600080fd5b600754811115610e145760075490505b8060036000828254610e2691906141cb565b9250508190555080600160008573ffffffffffffffffffffffffffffffffffffffff1673ffffffffffffffffffffffffffffffffffffffff1681526020019081526020016000206000828254610e7c91906141cb565b9250508190555080600d60008573ffffffffffffffffffffffffffffffffffffffff1673ffffffffffffffffffffffffffffffffffffffff1681526020019081526020016000206000828254610ed291906141cb565b925050819055508060096000828254610eeb91906141cb565b92505081905550610efa612e70565b8273ffffffffffffffffffffffffffffffffffffffff167fd110004d49ab61d41368db81cb67143ec29f042aa234ce4593b9267bea7a9abb3483604051610f42929190614049565b60405180910390a27f7fec1cb842adc24f20230e95bb426d3a98a4709de37b6923cd0fa4787a8c413c610f736127ea565b60075460095447600354604051610f8e9594939291906140a9565b60405180910390a1600a60009054906101000a900473ffffffffffffffffffffffffffffffffffffffff1673ffffffffffffffffffffffffffffffffffffffff1663abc6fd0b6064600f34610fe39190614252565b610fed9190614221565b6040518263ffffffff1660e01b81526004016000604051808303818588803b15801561101857600080fd5b505af115801561102c573d6000803e3d6000fd5b505050505080915050919050565b6002602052816000526040600020602052806000526040600020600091509150505481565b6004805461106c90614395565b80601f016020809104026020016040519081016040528092919081815260200182805461109890614395565b80156110e55780601f106110ba576101008083540402835291602001916110e5565b820191906000526020600020905b8154815290600101906020018083116110c857829003601f168201915b505050505081565b600c6020528060005260406000206000915090505481565b6000611119611112612f00565b8484612f08565b6001905092915050565b60008054906101000a900473ffffffffffffffffffffffffffffffffffffffff1673ffffffffffffffffffffffffffffffffffffffff163373ffffffffffffffffffffffffffffffffffffffff161461117b57600080fd5b60008260ff16118015611191575060008160ff16115b61119a57600080fd5b81600a60146101000a81548160ff021916908360ff16021790555080600a60156101000a81548160ff021916908360ff1602179055505050565b60105481565b600b60009054906101000a900463ffffffff1681565b600d6020528060005260406000206000915090505481565b6000600354905090565b600a60149054906101000a900460ff1681565b60006112328484846130d3565b506000600260008673ffffffffffffffffffffffffffffffffffffffff1673ffffffffffffffffffffffffffffffffffffffff168152602001908152602001600020600061127e612f00565b73ffffffffffffffffffffffffffffffffffffffff1673ffffffffffffffffffffffffffffffffffffffff168152602001908152602001600020549050828110156112fe576040517f08c379a00000000000000000000000000000000000000000000000000000000081526004016112f590613f8a565b60405180910390fd5b6113128561130a612f00565b858403612f08565b60019150509392505050565b60011515600860003373ffffffffffffffffffffffffffffffffffffffff1673ffffffffffffffffffffffffffffffffffffffff16815260200190815260200160002060009054906101000a900460ff1615151461137b57600080fd5b80600260003373ffffffffffffffffffffffffffffffffffffffff1673ffffffffffffffffffffffffffffffffffffffff16815260200190815260200160002060003373ffffffffffffffffffffffffffffffffffffffff1673ffffffffffffffffffffffffffffffffffffffff16815260200190815260200160002054101561140457600080fd5b600061140e6127ea565b90506000811161141d57600080fd5b6000818361142b9190614252565b9050600061143884611883565b63ffffffff1690506000606483836114509190614252565b61145a9190614221565b90504781111561146c57479250611470565b8092505b84600260003373ffffffffffffffffffffffffffffffffffffffff1673ffffffffffffffffffffffffffffffffffffffff16815260200190815260200160002060003373ffffffffffffffffffffffffffffffffffffffff1673ffffffffffffffffffffffffffffffffffffffff16815260200190815260200160002060008282546114fc91906142ac565b92505081905550846009600082825461151591906142ac565b925050819055506000834761152a91906142ac565b9050600a601a9054906101000a900463ffffffff1663ffffffff168314156115a7573373ffffffffffffffffffffffffffffffffffffffff167fb8c1a4f8db0dde56f2d0fe2b982e518fe743ac6e8aeec67e3b6d12ad9d249d4285876007546009548660405161159e9594939291906140a9565b60405180910390a25b3373ffffffffffffffffffffffffffffffffffffffff167fb7ee00edafdb5db3a1b52a5789a6b562eb48268842d113dbfe860b6f86e5f5958587600754600954866040516115f99594939291906140a9565b60405180910390a27f7fec1cb842adc24f20230e95bb426d3a98a4709de37b6923cd0fa4787a8c413c61162a6127ea565b600754600954476003546040516116459594939291906140a9565b60405180910390a13373ffffffffffffffffffffffffffffffffffffffff166108fc859081150290604051600060405180830381858888f19350505050158015611693573d6000803e3d6000fd5b50505050505050565b600660009054906101000a900460ff1681565b60035481565b600b60149054906101000a900463ffffffff1681565b600081600160003373ffffffffffffffffffffffffffffffffffffffff1673ffffffffffffffffffffffffffffffffffffffff16815260200190815260200160002054101561171957600080fd5b81600160003373ffffffffffffffffffffffffffffffffffffffff1673ffffffffffffffffffffffffffffffffffffffff168152602001908152602001600020600082825461176891906142ac565b92505081905550816003600082825461178191906142ac565b92505081905550816009600082825461179a91906142ac565b925050819055503373ffffffffffffffffffffffffffffffffffffffff167fcc16f5dbb4873280815c1ee09dbd06736cffcc184412cf7a71a0fdb75d397ca5836040516117e7919061402e565b60405180910390a27f7fec1cb842adc24f20230e95bb426d3a98a4709de37b6923cd0fa4787a8c413c6118186127ea565b600754600954476003546040516118339594939291906140a9565b60405180910390a160019050919050565b601160149054906101000a900460ff1681565b60095481565b600a60009054906101000a900473ffffffffffffffffffffffffffffffffffffffff1681565b6000600754600a60169054906101000a900463ffffffff1663ffffffff16836118ac9190614252565b11156118cc57600a601a9054906101000a900463ffffffff1690506119b7565b600754600b60009054906101000a900463ffffffff1663ffffffff16836118f39190614252565b111561191357600b60049054906101000a900463ffffffff1690506119b7565b600754600b60089054906101000a900463ffffffff1663ffffffff168361193a9190614252565b111561195a57600b600c9054906101000a900463ffffffff1690506119b7565b600754600b60109054906101000a900463ffffffff1663ffffffff16836119819190614252565b11156119a157600b60149054906101000a900463ffffffff1690506119b7565b600b60189054906101000a900463ffffffff1690505b919050565b60008054906101000a900473ffffffffffffffffffffffffffffffffffffffff1673ffffffffffffffffffffffffffffffffffffffff163373ffffffffffffffffffffffffffffffffffffffff1614611a1457600080fd5b80600860008473ffffffffffffffffffffffffffffffffffffffff1673ffffffffffffffffffffffffffffffffffffffff16815260200190815260200160002060006101000a81548160ff0219169083151502179055508173ffffffffffffffffffffffffffffffffffffffff167f4906ed4e26b9109b402e1202233b2cbcdedabfacc21c59732ba778fa8512115a82604051611ab19190613eed565b60405180910390a25050565b601160009054906101000a900473ffffffffffffffffffffffffffffffffffffffff1681565b60086020528060005260406000206000915054906101000a900460ff1681565b60008054906101000a900473ffffffffffffffffffffffffffffffffffffffff1673ffffffffffffffffffffffffffffffffffffffff163373ffffffffffffffffffffffffffffffffffffffff1614611b5b57600080fd5b60008963ffffffff16118015611b77575060008863ffffffff16115b15611bbf5788600a60166101000a81548163ffffffff021916908363ffffffff16021790555087600a601a6101000a81548163ffffffff021916908363ffffffff1602179055505b60008763ffffffff16118015611bdb575060008663ffffffff16115b15611c235786600b60006101000a81548163ffffffff021916908363ffffffff16021790555085600b60046101000a81548163ffffffff021916908363ffffffff1602179055505b60008563ffffffff16118015611c3f575060008463ffffffff16115b15611c875784600b60086101000a81548163ffffffff021916908363ffffffff16021790555083600b600c6101000a81548163ffffffff021916908363ffffffff1602179055505b60008363ffffffff16118015611ca3575060008263ffffffff16115b15611ceb5782600b60106101000a81548163ffffffff021916908363ffffffff16021790555081600b60146101000a81548163ffffffff021916908363ffffffff1602179055505b60008163ffffffff161115611d1c5780600b60186101000a81548163ffffffff021916908363ffffffff1602179055505b505050505050505050565b600b60109054906101000a900463ffffffff1681565b60075481565b60016020528060005260406000206000915090505481565b6000611d6682610d84565b905080600260008473ffffffffffffffffffffffffffffffffffffffff1673ffffffffffffffffffffffffffffffffffffffff16815260200190815260200160002060003373ffffffffffffffffffffffffffffffffffffffff1673ffffffffffffffffffffffffffffffffffffffff1681526020019081526020016000206000828254611df491906141cb565b925050819055503373ffffffffffffffffffffffffffffffffffffffff168273ffffffffffffffffffffffffffffffffffffffff167f8c5be1e5ebec7d5bd14f71427d1e84f3dd0314c0f7b2291e5b200ac8c7c3b92583604051611e58919061402e565b60405180910390a35050565b6000600160008373ffffffffffffffffffffffffffffffffffffffff1673ffffffffffffffffffffffffffffffffffffffff168152602001908152602001600020549050919050565b60008054906101000a900473ffffffffffffffffffffffffffffffffffffffff1673ffffffffffffffffffffffffffffffffffffffff163373ffffffffffffffffffffffffffffffffffffffff1614611f0557600080fd5b80600e8190555050565b600081600160008573ffffffffffffffffffffffffffffffffffffffff1673ffffffffffffffffffffffffffffffffffffffff168152602001908152602001600020541015611f5d57600080fd5b600260008473ffffffffffffffffffffffffffffffffffffffff1673ffffffffffffffffffffffffffffffffffffffff16815260200190815260200160002060003373ffffffffffffffffffffffffffffffffffffffff1673ffffffffffffffffffffffffffffffffffffffff16815260200190815260200160002054821115611fe657600080fd5b81600160008573ffffffffffffffffffffffffffffffffffffffff1673ffffffffffffffffffffffffffffffffffffffff168152602001908152602001600020600082825461203591906142ac565b9250508190555081600260008573ffffffffffffffffffffffffffffffffffffffff1673ffffffffffffffffffffffffffffffffffffffff16815260200190815260200160002060003373ffffffffffffffffffffffffffffffffffffffff1673ffffffffffffffffffffffffffffffffffffffff16815260200190815260200160002060008282546120c891906142ac565b9250508190555081600360008282546120e191906142ac565b9250508190555081600960008282546120fa91906142ac565b925050819055508273ffffffffffffffffffffffffffffffffffffffff167fcc16f5dbb4873280815c1ee09dbd06736cffcc184412cf7a71a0fdb75d397ca583604051612147919061402e565b60405180910390a27f7fec1cb842adc24f20230e95bb426d3a98a4709de37b6923cd0fa4787a8c413c6121786127ea565b600754600954476003546040516121939594939291906140a9565b60405180910390a16001905092915050565b60008054906101000a900473ffffffffffffffffffffffffffffffffffffffff1673ffffffffffffffffffffffffffffffffffffffff163373ffffffffffffffffffffffffffffffffffffffff16146121fd57600080fd5b60008161ffff161161220e57600080fd5b80600660016101000a81548161ffff021916908361ffff1602179055507f5689254f2acfb695a1a23be898658e182b8ceb9137adc10ff5be9143ea87c810600660019054906101000a900461ffff168260405161226c929190614005565b60405180910390a150565b600f60019054906101000a900460ff1681565b60008054906101000a900473ffffffffffffffffffffffffffffffffffffffff1681565b600073ffffffffffffffffffffffffffffffffffffffff16601160009054906101000a900473ffffffffffffffffffffffffffffffffffffffff1673ffffffffffffffffffffffffffffffffffffffff16141561230a57600080fd5b6000600260003373ffffffffffffffffffffffffffffffffffffffff1673ffffffffffffffffffffffffffffffffffffffff16815260200190815260200160002060003373ffffffffffffffffffffffffffffffffffffffff1673ffffffffffffffffffffffffffffffffffffffff1681526020019081526020016000205490506000811161239857600080fd5b6000600260003373ffffffffffffffffffffffffffffffffffffffff1673ffffffffffffffffffffffffffffffffffffffff16815260200190815260200160002060003373ffffffffffffffffffffffffffffffffffffffff1673ffffffffffffffffffffffffffffffffffffffff168152602001908152602001600020819055508060035461242891906142ac565b6003819055508060095461243c91906142ac565b6009819055506000600c60003373ffffffffffffffffffffffffffffffffffffffff1673ffffffffffffffffffffffffffffffffffffffff168152602001908152602001600020819055506000600d60003373ffffffffffffffffffffffffffffffffffffffff1673ffffffffffffffffffffffffffffffffffffffff168152602001908152602001600020819055506000600860003373ffffffffffffffffffffffffffffffffffffffff1673ffffffffffffffffffffffffffffffffffffffff16815260200190815260200160002060006101000a81548160ff0219169083151502179055503373ffffffffffffffffffffffffffffffffffffffff167fa59785389b00cbd19745afbe8d59b28e3161395c6b1e3525861a2b0dede0b90d8260405161256a919061402e565b60405180910390a2601160009054906101000a900473ffffffffffffffffffffffffffffffffffffffff1673ffffffffffffffffffffffffffffffffffffffff166390dd027e3383600c60003373ffffffffffffffffffffffffffffffffffffffff1673ffffffffffffffffffffffffffffffffffffffff16815260200190815260200160002054600d60003373ffffffffffffffffffffffffffffffffffffffff1673ffffffffffffffffffffffffffffffffffffffff16815260200190815260200160002054600860003373ffffffffffffffffffffffffffffffffffffffff1673ffffffffffffffffffffffffffffffffffffffff16815260200190815260200160002060009054906101000a900460ff166040518663ffffffff1660e01b815260040161269f959493929190613e9a565b600060405180830381600087803b1580156126b957600080fd5b505af11580156126cd573d6000803e3d6000fd5b5050505050565b600580546126e190614395565b80601f016020809104026020016040519081016040528092919081815260200182805461270d90614395565b801561275a5780601f1061272f5761010080835404028352916020019161275a565b820191906000526020600020905b81548152906001019060200180831161273d57829003601f168201915b505050505081565b600b60089054906101000a900463ffffffff1681565b600b60189054906101000a900463ffffffff1681565b61279733610d84565b50565b60006127ae6127a7612f00565b84846130d3565b506001905092915050565b34601060008282546127cb91906141cb565b92505081905550565b600a601a9054906101000a900463ffffffff1681565b6000806009541115612818576009546010544761280791906142ac565b6128119190614221565b9050612829565b6010544761282691906142ac565b90505b90565b60008054906101000a900473ffffffffffffffffffffffffffffffffffffffff1673ffffffffffffffffffffffffffffffffffffffff163373ffffffffffffffffffffffffffffffffffffffff161461288457600080fd5b80601160006101000a81548173ffffffffffffffffffffffffffffffffffffffff021916908373ffffffffffffffffffffffffffffffffffffffff16021790555050565b600a60159054906101000a900460ff1681565b600a60169054906101000a900463ffffffff1681565b6000808490506129018585611105565b15612981578073ffffffffffffffffffffffffffffffffffffffff16638f4ffcb1338630876040518563ffffffff1660e01b81526004016129459493929190613e4e565b600060405180830381600087803b15801561295f57600080fd5b505af1158015612973573d6000803e3d6000fd5b505050506001915050612987565b60009150505b9392505050565b600061299984613348565b600260008573ffffffffffffffffffffffffffffffffffffffff1673ffffffffffffffffffffffffffffffffffffffff16815260200190815260200160002060003373ffffffffffffffffffffffffffffffffffffffff1673ffffffffffffffffffffffffffffffffffffffff16815260200190815260200160002054821115612a2257600080fd5b81600260008673ffffffffffffffffffffffffffffffffffffffff1673ffffffffffffffffffffffffffffffffffffffff16815260200190815260200160002060003373ffffffffffffffffffffffffffffffffffffffff1673ffffffffffffffffffffffffffffffffffffffff1681526020019081526020016000206000828254612aae91906142ac565b92505081905550612ac08484846130d3565b15612bc65781600260008573ffffffffffffffffffffffffffffffffffffffff1673ffffffffffffffffffffffffffffffffffffffff16815260200190815260200160002060003373ffffffffffffffffffffffffffffffffffffffff1673ffffffffffffffffffffffffffffffffffffffff1681526020019081526020016000206000828254612b5191906141cb565b925050819055503373ffffffffffffffffffffffffffffffffffffffff168373ffffffffffffffffffffffffffffffffffffffff167f8c5be1e5ebec7d5bd14f71427d1e84f3dd0314c0f7b2291e5b200ac8c7c3b92584604051612bb5919061402e565b60405180910390a360019050612bcb565b600090505b9392505050565b600f60009054906101000a900460ff1681565b600660019054906101000a900461ffff1681565b6000600260008473ffffffffffffffffffffffffffffffffffffffff1673ffffffffffffffffffffffffffffffffffffffff16815260200190815260200160002060008373ffffffffffffffffffffffffffffffffffffffff1673ffffffffffffffffffffffffffffffffffffffff16815260200190815260200160002054905092915050565b60008054906101000a900473ffffffffffffffffffffffffffffffffffffffff1673ffffffffffffffffffffffffffffffffffffffff163373ffffffffffffffffffffffffffffffffffffffff1614612cd857600080fd5b60008111612ce557600080fd5b8060078190555050565b600b600c9054906101000a900463ffffffff1681565b60008054906101000a900473ffffffffffffffffffffffffffffffffffffffff1673ffffffffffffffffffffffffffffffffffffffff163373ffffffffffffffffffffffffffffffffffffffff1614612d5d57600080fd5b600073ffffffffffffffffffffffffffffffffffffffff168173ffffffffffffffffffffffffffffffffffffffff161415612d9757600080fd5b8073ffffffffffffffffffffffffffffffffffffffff1660008054906101000a900473ffffffffffffffffffffffffffffffffffffffff1673ffffffffffffffffffffffffffffffffffffffff167f0384899bd253d83b23daa4d29aaa2efe0563d1132b43101e9ad667235aeb951b60405160405180910390a3806000806101000a81548173ffffffffffffffffffffffffffffffffffffffff021916908373ffffffffffffffffffffffffffffffffffffffff16021790555050565b600e5481565b600b60049054906101000a900463ffffffff1681565b60075460035410612efe57600a60159054906101000a900460ff1660ff16600a60149054906101000a900460ff1660ff16600754612eae9190614252565b612eb89190614221565b6007819055507fcbcd26b6186e060bbf8b759e43d03d45b0ae970bc970ab1c746bd1babc0d70b160075447600954604051612ef593929190614072565b60405180910390a15b565b600033905090565b600073ffffffffffffffffffffffffffffffffffffffff168373ffffffffffffffffffffffffffffffffffffffff161415612f78576040517f08c379a0000000000000000000000000000000000000000000000000000000008152600401612f6f90613fca565b60405180910390fd5b600073ffffffffffffffffffffffffffffffffffffffff168273ffffffffffffffffffffffffffffffffffffffff161415612fe8576040517f08c379a0000000000000000000000000000000000000000000000000000000008152600401612fdf90613f4a565b60405180910390fd5b80600260008573ffffffffffffffffffffffffffffffffffffffff1673ffffffffffffffffffffffffffffffffffffffff16815260200190815260200160002060008473ffffffffffffffffffffffffffffffffffffffff1673ffffffffffffffffffffffffffffffffffffffff168152602001908152602001600020819055508173ffffffffffffffffffffffffffffffffffffffff168373ffffffffffffffffffffffffffffffffffffffff167f8c5be1e5ebec7d5bd14f71427d1e84f3dd0314c0f7b2291e5b200ac8c7c3b925836040516130c6919061402e565b60405180910390a3505050565b60008073ffffffffffffffffffffffffffffffffffffffff168473ffffffffffffffffffffffffffffffffffffffff161415613144576040517f08c379a000000000000000000000000000000000000000000000000000000000815260040161313b90613faa565b60405180910390fd5b600073ffffffffffffffffffffffffffffffffffffffff168373ffffffffffffffffffffffffffffffffffffffff1614156131b4576040517f08c379a00000000000000000000000000000000000000000000000000000000081526004016131ab90613f2a565b60405180910390fd5b6000600160008673ffffffffffffffffffffffffffffffffffffffff1673ffffffffffffffffffffffffffffffffffffffff1681526020019081526020016000205490508281101561323b576040517f08c379a000000000000000000000000000000000000000000000000000000000815260040161323290613f6a565b60405180910390fd5b828103600160008773ffffffffffffffffffffffffffffffffffffffff1673ffffffffffffffffffffffffffffffffffffffff1681526020019081526020016000208190555082600160008673ffffffffffffffffffffffffffffffffffffffff1673ffffffffffffffffffffffffffffffffffffffff16815260200190815260200160002060008282546132d091906141cb565b925050819055508373ffffffffffffffffffffffffffffffffffffffff168573ffffffffffffffffffffffffffffffffffffffff167fddf252ad1be2c89b69c2b068fc378daa952ba7f163c4a11628f55a4df523b3ef85604051613334919061402e565b60405180910390a360019150509392505050565b600073ffffffffffffffffffffffffffffffffffffffff168173ffffffffffffffffffffffffffffffffffffffff16141561338257600080fd5b600080600c60008473ffffffffffffffffffffffffffffffffffffffff1673ffffffffffffffffffffffffffffffffffffffff1681526020019081526020016000205414156133d557600e54905061349c565b600754600c60008473ffffffffffffffffffffffffffffffffffffffff1673ffffffffffffffffffffffffffffffffffffffff16815260200190815260200160002054101561349b57600f60019054906101000a900460ff1660ff16600f60009054906101000a900460ff1660ff16600d60008573ffffffffffffffffffffffffffffffffffffffff1673ffffffffffffffffffffffffffffffffffffffff1681526020019081526020016000205461348e9190614252565b6134989190614221565b90505b5b600081111561373257600754600c60008473ffffffffffffffffffffffffffffffffffffffff1673ffffffffffffffffffffffffffffffffffffffff1681526020019081526020016000208190555080600160008473ffffffffffffffffffffffffffffffffffffffff1673ffffffffffffffffffffffffffffffffffffffff168152602001908152602001600020600082825461353a91906141cb565b9250508190555080600260008473ffffffffffffffffffffffffffffffffffffffff1673ffffffffffffffffffffffffffffffffffffffff16815260200190815260200160002060003373ffffffffffffffffffffffffffffffffffffffff1673ffffffffffffffffffffffffffffffffffffffff16815260200190815260200160002060008282546135cd91906141cb565b9250508190555080600360008282546135e691906141cb565b9250508190555080600960008282546135ff91906141cb565b925050819055506000600660019054906101000a900461ffff1661ffff16670de0b6b3a7640000836136319190614252565b61363b9190614221565b9050806010541061366457806010600082825461365891906142ac565b9250508190555061366d565b60006010819055505b613675612e70565b3373ffffffffffffffffffffffffffffffffffffffff168373ffffffffffffffffffffffffffffffffffffffff167f8c5be1e5ebec7d5bd14f71427d1e84f3dd0314c0f7b2291e5b200ac8c7c3b925846040516136d2919061402e565b60405180910390a38273ffffffffffffffffffffffffffffffffffffffff167fe417c38cb96e748006d0ef1a56fec0de428abac103b6644bc30c745f54f543458360095460035460405161372893929190614072565b60405180910390a2505b5050565b600061374961374484614163565b614132565b90508281526020810184848401111561376157600080fd5b61376c848285614353565b509392505050565b60008135905061378381614494565b92915050565b600081359050613798816144ab565b92915050565b600082601f8301126137af57600080fd5b81356137bf848260208601613736565b91505092915050565b6000813590506137d7816144c2565b92915050565b6000813590506137ec816144d9565b92915050565b600081359050613801816144f0565b92915050565b60008135905061381681614507565b92915050565b60006020828403121561382e57600080fd5b600061383c84828501613774565b91505092915050565b6000806040838503121561385857600080fd5b600061386685828601613774565b925050602061387785828601613774565b9150509250929050565b60008060006060848603121561389657600080fd5b60006138a486828701613774565b93505060206138b586828701613774565b92505060406138c6868287016137dd565b9150509250925092565b600080604083850312156138e357600080fd5b60006138f185828601613774565b925050602061390285828601613789565b9150509250929050565b6000806040838503121561391f57600080fd5b600061392d85828601613774565b925050602061393e858286016137dd565b9150509250929050565b60008060006060848603121561395d57600080fd5b600061396b86828701613774565b935050602061397c868287016137dd565b925050604084013567ffffffffffffffff81111561399957600080fd5b6139a58682870161379e565b9150509250925092565b6000602082840312156139c157600080fd5b60006139cf848285016137c8565b91505092915050565b6000602082840312156139ea57600080fd5b60006139f8848285016137dd565b91505092915050565b60008060008060008060008060006101208a8c031215613a2057600080fd5b6000613a2e8c828d016137f2565b9950506020613a3f8c828d016137f2565b9850506040613a508c828d016137f2565b9750506060613a618c828d016137f2565b9650506080613a728c828d016137f2565b95505060a0613a838c828d016137f2565b94505060c0613a948c828d016137f2565b93505060e0613aa58c828d016137f2565b925050610100613ab78c828d016137f2565b9150509295985092959850929598565b60008060408385031215613ada57600080fd5b6000613ae885828601613807565b9250506020613af985828601613807565b9150509250929050565b613b0c816142e0565b82525050565b613b1b816142f2565b82525050565b6000613b2c82614193565b613b3681856141a9565b9350613b46818560208601614362565b613b4f81614483565b840191505092915050565b6000613b658261419e565b613b6f81856141ba565b9350613b7f818560208601614362565b613b8881614483565b840191505092915050565b6000613ba06023836141ba565b91507f45524332303a207472616e7366657220746f20746865207a65726f206164647260008301527f65737300000000000000000000000000000000000000000000000000000000006020830152604082019050919050565b6000613c066022836141ba565b91507f45524332303a20617070726f766520746f20746865207a65726f20616464726560008301527f73730000000000000000000000000000000000000000000000000000000000006020830152604082019050919050565b6000613c6c6026836141ba565b91507f45524332303a207472616e7366657220616d6f756e742065786365656473206260008301527f616c616e636500000000000000000000000000000000000000000000000000006020830152604082019050919050565b6000613cd26028836141ba565b91507f45524332303a207472616e7366657220616d6f756e742065786365656473206160008301527f6c6c6f77616e63650000000000000000000000000000000000000000000000006020830152604082019050919050565b6000613d386025836141ba565b91507f45524332303a207472616e736665722066726f6d20746865207a65726f20616460008301527f64726573730000000000000000000000000000000000000000000000000000006020830152604082019050919050565b6000613d9e6024836141ba565b91507f45524332303a20617070726f76652066726f6d20746865207a65726f2061646460008301527f72657373000000000000000000000000000000000000000000000000000000006020830152604082019050919050565b613e00816142fe565b82525050565b613e0f8161432c565b82525050565b613e1e81614336565b82525050565b613e2d81614346565b82525050565b6000602082019050613e486000830184613b03565b92915050565b6000608082019050613e636000830187613b03565b613e706020830186613e06565b613e7d6040830185613b03565b8181036060830152613e8f8184613b21565b905095945050505050565b600060a082019050613eaf6000830188613b03565b613ebc6020830187613e06565b613ec96040830186613e06565b613ed66060830185613e06565b613ee36080830184613b12565b9695505050505050565b6000602082019050613f026000830184613b12565b92915050565b60006020820190508181036000830152613f228184613b5a565b905092915050565b60006020820190508181036000830152613f4381613b93565b9050919050565b60006020820190508181036000830152613f6381613bf9565b9050919050565b60006020820190508181036000830152613f8381613c5f565b9050919050565b60006020820190508181036000830152613fa381613cc5565b9050919050565b60006020820190508181036000830152613fc381613d2b565b9050919050565b60006020820190508181036000830152613fe381613d91565b9050919050565b6000602082019050613fff6000830184613df7565b92915050565b600060408201905061401a6000830185613df7565b6140276020830184613df7565b9392505050565b60006020820190506140436000830184613e06565b92915050565b600060408201905061405e6000830185613e06565b61406b6020830184613e06565b9392505050565b60006060820190506140876000830186613e06565b6140946020830185613e06565b6140a16040830184613e06565b949350505050565b600060a0820190506140be6000830188613e06565b6140cb6020830187613e06565b6140d86040830186613e06565b6140e56060830185613e06565b6140f26080830184613e06565b9695505050505050565b60006020820190506141116000830184613e15565b92915050565b600060208201905061412c6000830184613e24565b92915050565b6000604051905081810181811067ffffffffffffffff8211171561415957614158614454565b5b8060405250919050565b600067ffffffffffffffff82111561417e5761417d614454565b5b601f19601f8301169050602081019050919050565b600081519050919050565b600081519050919050565b600082825260208201905092915050565b600082825260208201905092915050565b60006141d68261432c565b91506141e18361432c565b9250827fffffffffffffffffffffffffffffffffffffffffffffffffffffffffffffffff03821115614216576142156143c7565b5b828201905092915050565b600061422c8261432c565b91506142378361432c565b925082614247576142466143f6565b5b828204905092915050565b600061425d8261432c565b91506142688361432c565b9250817fffffffffffffffffffffffffffffffffffffffffffffffffffffffffffffffff04831182151516156142a1576142a06143c7565b5b828202905092915050565b60006142b78261432c565b91506142c28361432c565b9250828210156142d5576142d46143c7565b5b828203905092915050565b60006142eb8261430c565b9050919050565b60008115159050919050565b600061ffff82169050919050565b600073ffffffffffffffffffffffffffffffffffffffff82169050919050565b6000819050919050565b600063ffffffff82169050919050565b600060ff82169050919050565b82818337600083830152505050565b60005b83811015614380578082015181840152602081019050614365565b8381111561438f576000848401525b50505050565b600060028204905060018216806143ad57607f821691505b602082108114156143c1576143c0614425565b5b50919050565b7f4e487b7100000000000000000000000000000000000000000000000000000000600052601160045260246000fd5b7f4e487b7100000000000000000000000000000000000000000000000000000000600052601260045260246000fd5b7f4e487b7100000000000000000000000000000000000000000000000000000000600052602260045260246000fd5b7f4e487b7100000000000000000000000000000000000000000000000000000000600052604160045260246000fd5b6000601f19601f8301169050919050565b61449d816142e0565b81146144a857600080fd5b50565b6144b4816142f2565b81146144bf57600080fd5b50565b6144cb816142fe565b81146144d657600080fd5b50565b6144e28161432c565b81146144ed57600080fd5b50565b6144f981614336565b811461450457600080fd5b50565b61451081614346565b811461451b57600080fd5b5056fea264697066735822122036218ceadea7bd778e8553b74e2236325265b147559ea5edc8d0b8099a2d3bab64736f6c63430008000033",
  "immutableReferences": {},
  "source": "// SPDX-License-Identifier: MIT\n\npragma solidity ^0.8.0;\n\nimport './Ownable.sol';\nimport './ERC20.sol';\nimport './Q2.sol';\nimport './IMigrationTarget.sol';\ninterface TokenRecipient {\n  function receiveApproval(address _from, uint256 _value, address _token, bytes memory _extraData) external;\n}\n\ncontract Quarters is Ownable, ERC20 {\n  // Public variables of the token\n  string public name = \"Quarters\";\n  string public symbol = \"Q\";\n  uint8 public decimals = 0; // no decimals, only integer quarters\n\n  uint16 public ethRate = 4000; // Quarters/ETH\n  uint256 public tranche = 40000; // Number of Quarters in initial tranche\n\n  // List of developers\n  // address -> status\n  mapping (address => bool) public developers;\n\n  uint256 public outstandingQuarters;\n  address public q2;\n\n  // number of Quarters for next tranche\n  uint8 public trancheNumerator = 2;\n  uint8 public trancheDenominator = 1;\n\n  // initial multiples, rates (as percentages) for tiers of developers\n  uint32 public mega = 20;\n  uint32 public megaRate = 115;\n  uint32 public large = 100;\n  uint32 public largeRate = 90;\n  uint32 public medium = 2000;\n  uint32 public mediumRate = 75;\n  uint32 public small = 50000;\n  uint32 public smallRate = 50;\n  uint32 public microRate = 25;\n\n  // rewards related storage\n  mapping (address => uint256) public rewards;    // rewards earned, but not yet collected\n  mapping (address => uint256) public trueBuy;    // tranche rewards are set based on *actual* purchases of Quarters\n\n  uint256 public rewardAmount = 40;\n\n  uint8 public rewardNumerator = 1;\n  uint8 public rewardDenominator = 4;\n\n  // reserve ETH from Q2 to fund rewards\n  uint256 public reserveETH=0;\n\n  // ETH rate changed\n  event EthRateChanged(uint16 currentRate, uint16 newRate);\n\n  // This notifies clients about the amount burnt\n  event Burn(address indexed from, uint256 value);\n\n  event QuartersOrdered(address indexed sender, uint256 ethValue, uint256 tokens);\n  event DeveloperStatusChanged(address indexed developer, bool status);\n  event TrancheIncreased(uint256 _tranche, uint256 _etherPool, uint256 _outstandingQuarters);\n  event MegaEarnings(address indexed developer, uint256 value, uint256 _baseRate, uint256 _tranche, uint256 _outstandingQuarters, uint256 _etherPool);\n  event Withdraw(address indexed developer, uint256 value, uint256 _baseRate, uint256 _tranche, uint256 _outstandingQuarters, uint256 _etherPool);\n  event BaseRateChanged(uint256 _baseRate, uint256 _tranche, uint256 _outstandingQuarters, uint256 _etherPool,  uint256 _totalSupply);\n  event Reward(address indexed _address, uint256 value, uint256 _outstandingQuarters, uint256 _totalSupply);\n\n  /**\n   * developer modifier\n   */\n  modifier onlyActiveDeveloper() {\n    require(developers[msg.sender] == true);\n    _;\n  }\n\n  /**\n   * Constructor function\n   *\n   * Initializes contract with initial supply tokens to the owner of the contract\n   */\n  constructor(\n    address _q2,\n    uint256 firstTranche\n  )  {\n    q2 = _q2;\n    tranche = firstTranche; // number of Quarters to be sold before increasing price\n  }\n\n  function setEthRate (uint16 rate) onlyOwner public {\n    // Ether price is set in Wei\n    require(rate > 0);\n    ethRate = rate;\n    emit EthRateChanged(ethRate, rate);\n  }\n\n  /**\n   * Adjust reward amount\n   */\n  function adjustReward (uint256 reward) onlyOwner public {\n    rewardAmount = reward; // may be zero, no need to check value to 0\n  }\n\n  function adjustWithdrawRate(uint32 mega2, uint32 megaRate2, uint32 large2, uint32 largeRate2, uint32 medium2, uint32 mediumRate2, uint32 small2, uint32 smallRate2, uint32 microRate2) onlyOwner public {\n    // the values (mega, large, medium, small) are multiples, e.g., 20x, 100x, 10000x\n    // the rates (megaRate, etc.) are percentage points, e.g., 150 is 150% of the remaining etherPool\n    if (mega2 > 0 && megaRate2 > 0) {\n      mega = mega2;\n      megaRate = megaRate2;\n    }\n\n    if (large2 > 0 && largeRate2 > 0) {\n      large = large2;\n      largeRate = largeRate2;\n    }\n\n    if (medium2 > 0 && mediumRate2 > 0) {\n      medium = medium2;\n      mediumRate = mediumRate2;\n    }\n\n    if (small2 > 0 && smallRate2 > 0){\n      small = small2;\n      smallRate = smallRate2;\n    }\n\n    if (microRate2 > 0) {\n      microRate = microRate2;\n    }\n  }\n\n  /**\n   * adjust tranche for next cycle\n   */\n  function adjustNextTranche (uint8 numerator, uint8 denominator) onlyOwner public {\n    require(numerator > 0 && denominator > 0);\n    trancheNumerator = numerator;\n    trancheDenominator = denominator;\n  }\n\n  function adjustTranche(uint256 tranche2) onlyOwner public {\n    require(tranche2 > 0);\n    tranche = tranche2;\n  }\n\n  /**\n   * Adjust rewards for `_address`\n   */\n  function updatePlayerRewards(address _address) internal {\n    require(_address != address(0));\n\n    uint256 _reward = 0;\n    if (rewards[_address] == 0) {\n      _reward = rewardAmount;\n    } else if (rewards[_address] < tranche) {\n      _reward = trueBuy[_address] * rewardNumerator / rewardDenominator;\n    }\n\n    if (_reward > 0) {\n      // update rewards record\n      rewards[_address] = tranche;\n\n      _balances[_address] += _reward;\n      _allowances[_address][msg.sender] += _reward; // set allowance\n\n      _totalSupply += _reward;\n      outstandingQuarters += _reward;\n\n      uint256 spentETH = (_reward * (10 ** 18)) / ethRate;\n      if (reserveETH >= spentETH) {\n          reserveETH -= spentETH;\n        } else {\n          reserveETH = 0;\n        }\n\n      // tranche size change\n      _changeTrancheIfNeeded();\n\n      emit Approval(_address, msg.sender, _reward);\n      emit Reward(_address, _reward, outstandingQuarters, _totalSupply);\n    }\n  }\n\n  /**\n   * Developer status\n   */\n  function setDeveloperStatus (address _address, bool status) onlyOwner public {\n    developers[_address] = status;\n    emit DeveloperStatusChanged(_address, status);\n  }\n\n  /**\n   * Set allowance for other address and notify\n   *\n   * Allows `_spender` to spend no more than `_value` tokens in your behalf, and then ping the contract about it\n   *\n   * @param _spender The address authorized to spend\n   * @param _value the max amount they can spend\n   * @param _extraData some extra information to send to the approved contract\n   */\n  function approveAndCall(address _spender, uint256 _value, bytes memory _extraData)\n  public\n  returns (bool success) {\n     TokenRecipient spender = TokenRecipient(_spender);\n    if (approve(_spender, _value)) {\n      spender.receiveApproval(msg.sender, _value, address(this), _extraData);\n      return true;\n    }\n\n    return false;\n  }\n\n  /**\n   * Destroy tokens\n   *\n   * Remove `_value` tokens from the system irreversibly\n   *\n   * @param _value the amount of money to burn\n   */\n  function burn(uint256 _value) public returns (bool success) {\n    require(_balances[msg.sender] >= _value);   // Check if the sender has enough\n    _balances[msg.sender] -= _value;            // Subtract from the sender\n    _totalSupply -= _value;                     // Updates totalSupply\n    outstandingQuarters -= _value;              // Update outstanding quarters\n    emit Burn(msg.sender, _value);\n\n    // log rate change\n    emit BaseRateChanged(getBaseRate(), tranche, outstandingQuarters, address(this).balance, _totalSupply);\n    return true;\n  }\n\n  /**\n   * Destroy tokens from other account\n   *\n   * Remove `_value` tokens from the system irreversibly on behalf of `_from`.\n   *\n   * @param _from the address of the sender\n   * @param _value the amount of money to burn\n   */\n  function burnFrom(address _from, uint256 _value) public returns (bool success) {\n    require(_balances[_from] >= _value);                // Check if the targeted balance is enough\n    require(_value <= _allowances[_from][msg.sender]);     // Check allowance\n    _balances[_from] -= _value;                         // Subtract from the targeted balance\n    _allowances[_from][msg.sender] -= _value;              // Subtract from the sender's allowance\n    _totalSupply -= _value;                      // Update totalSupply\n    outstandingQuarters -= _value;              // Update outstanding quarters\n    emit Burn(_from, _value);\n\n    // log rate change\n    emit BaseRateChanged(getBaseRate(), tranche, outstandingQuarters, address(this).balance, _totalSupply);\n    return true;\n  }\n\n  /**\n   * Buy quarters by sending ethers to contract address (no data required)\n   */\n  receive() external payable{\n    _buy(msg.sender);\n  }\n\n  function buy() payable public {\n    _buy(msg.sender);\n  }\n\n  function buyFor(address buyer) payable public {\n    uint256 _value =  _buy(buyer);\n\n    // allow donor (msg.sender) to spend buyer's tokens\n    _allowances[buyer][msg.sender] += _value;\n    emit Approval(buyer, msg.sender, _value);\n  }\n\n  function _changeTrancheIfNeeded() internal {\n    if (_totalSupply >= tranche) {\n      // change tranche size for next cycle\n      tranche = (tranche * trancheNumerator) / trancheDenominator;\n\n      // fire event for tranche change\n      emit TrancheIncreased(tranche, address(this).balance, outstandingQuarters);\n    }\n  }\n\n  // returns number of quarters buyer got\n  function _buy(address buyer) internal returns (uint256) {\n    require(buyer != address(0));\n\n    uint256 nq = (msg.value * ethRate) / (10 ** 18);\n    require(nq != 0);\n    if (nq > tranche) {\n      nq = tranche;\n    }\n\n    _totalSupply += nq;\n    _balances[buyer] += nq;\n    trueBuy[buyer] += nq;\n    outstandingQuarters += nq;\n\n    // change tranche size\n    _changeTrancheIfNeeded();\n\n    // event for quarters order (invoice)\n    emit QuartersOrdered(buyer, msg.value, nq);\n\n    // log rate change\n    emit BaseRateChanged(getBaseRate(), tranche, outstandingQuarters, address(this).balance, _totalSupply);\n\n    // transfer owner's cut\n    Q2(q2).disburse{value:(msg.value*15)/100}();\n\n    // return nq\n    return nq;\n  }\n\n  /**\n   * Transfer allowance from other address's allowance\n   *\n   * Send `_value` tokens to `_to` in behalf of `_from`\n   *\n   * @param _from The address of the sender\n   * @param _to The address of the recipient\n   * @param _value the amount to send\n   */\n  function transferAllowance(address _from, address _to, uint256 _value) public returns (bool success) {\n    updatePlayerRewards(_from);\n    require(_value <= _allowances[_from][msg.sender]);     // Check allowance\n    _allowances[_from][msg.sender] -= _value;\n\n    if (_transfer(_from, _to, _value)) {\n      // allow msg.sender to spend _to's tokens\n      _allowances[_to][msg.sender] += _value;\n      emit Approval(_to, msg.sender, _value);\n      return true;\n    }\n\n    return false;\n  }\n\n  function withdraw(uint256 value) onlyActiveDeveloper public {\n    require(_allowances[msg.sender][msg.sender] >= value);\n\n    uint256 baseRate = getBaseRate();\n    require(baseRate > 0); // check if base rate > 0\n\n    uint256 earnings = value * baseRate;\n    uint256 rate = getRate(value); // get rate from value and tranche\n    uint256 earningsWithBonus = (rate * earnings) / 100;\n    if (earningsWithBonus > address(this).balance) {\n      earnings = address(this).balance;\n    } else {\n      earnings = earningsWithBonus;\n    }\n\n    _allowances[msg.sender][msg.sender] -= value;\n    outstandingQuarters -= value; // update the outstanding Quarters\n\n    uint256 etherPool = address(this).balance - earnings;\n    if (rate == megaRate) {\n      emit MegaEarnings(msg.sender, earnings, baseRate, tranche, outstandingQuarters, etherPool); // with current base rate\n    }\n\n    // event for withdraw\n    emit Withdraw(msg.sender, earnings, baseRate, tranche, outstandingQuarters, etherPool);  // with current base rate\n\n    // log rate change\n    emit BaseRateChanged(getBaseRate(), tranche, outstandingQuarters, address(this).balance, _totalSupply);\n\n    // earning for developers\n    payable(msg.sender).transfer(earnings);  \n}\n\n  function disburse() public payable {\n    reserveETH += msg.value;\n  }\n\n  function getBaseRate () view public returns (uint256) {\n    if (outstandingQuarters > 0) {\n      return (address(this).balance - reserveETH) / outstandingQuarters;\n    }\n\n    return (address(this).balance - reserveETH);\n  }\n\n  function getRate (uint256 value) view public returns (uint32) {\n    if (value * mega > tranche) {  // size & rate for mega developer\n      return megaRate;\n    } else if (value * large > tranche) {   // size & rate for large developer\n      return largeRate;\n    } else if (value * medium > tranche) {  // size and rate for medium developer\n      return mediumRate;\n    } else if (value * small > tranche){  // size and rate for small developer\n      return smallRate;\n    }\n\n    return microRate; // rate for micro developer\n  }\n\n\n  //\n  // Migrations\n  //\n\n  // Target contract\n  address public migrationTarget;\n  bool public migrating = false;\n\n  // Migrate event\n  event Migrate(address indexed _from, uint256 _value);\n\n  //\n  // Migrate tokens to the new token contract.\n  //\n  function migrate() public {\n    require(migrationTarget != address(0));\n    uint256 _amount = _allowances[msg.sender][msg.sender];\n    require(_amount > 0);\n    _allowances[msg.sender][msg.sender] = 0;\n\n    _totalSupply = _totalSupply - _amount;\n    outstandingQuarters = outstandingQuarters - _amount;\n\n    rewards[msg.sender] = 0;\n    trueBuy[msg.sender] = 0;\n    developers[msg.sender] = false;\n  \n\n  emit Migrate(msg.sender, _amount);\n  IMigrationTarget(migrationTarget).migrateFrom(msg.sender, _amount, rewards[msg.sender], trueBuy[msg.sender], developers[msg.sender]);\n   }\n\n  //\n  // Set address of migration target contract\n  // @param _target The address of the MigrationTarget contract\n  //\n  function setMigrationTarget(address _target) onlyOwner public {\n    migrationTarget = _target;\n  }\n}\n",
  "sourcePath": "/home/bootwal/Desktop/quarter-sol/contracts/Quaters.sol",
  "compiler": {
    "name": "solc",
    "version": "0.8.0+commit.c7dfd78e.Emscripten.clang"
  },
  "schemaVersion": "3.4.1",
  "updatedAt": "2021-07-16T08:45:55.403Z",
  "networkType": "ethereum",
  "devdoc": {
    "kind": "dev",
    "methods": {
      "approveAndCall(address,uint256,bytes)": {
        "params": {
          "_extraData": "some extra information to send to the approved contract",
          "_spender": "The address authorized to spend",
          "_value": "the max amount they can spend"
        }
      },
      "burn(uint256)": {
        "params": {
          "_value": "the amount of money to burn"
        }
      },
      "burnFrom(address,uint256)": {
        "params": {
          "_from": "the address of the sender",
          "_value": "the amount of money to burn"
        }
      },
      "transferAllowance(address,address,uint256)": {
        "params": {
          "_from": "The address of the sender",
          "_to": "The address of the recipient",
          "_value": "the amount to send"
        }
      },
      "transferOwnership(address)": {
        "details": "Allows the current owner to transfer control of the contract to a newOwner.",
        "params": {
          "newOwner": "The address to transfer ownership to."
        }
      }
    },
    "version": 1
  },
  "userdoc": {
    "kind": "user",
    "methods": {
      "adjustNextTranche(uint8,uint8)": {
        "notice": "adjust tranche for next cycle"
      },
      "adjustReward(uint256)": {
        "notice": "Adjust reward amount"
      },
      "approveAndCall(address,uint256,bytes)": {
        "notice": "Set allowance for other address and notify Allows `_spender` to spend no more than `_value` tokens in your behalf, and then ping the contract about it"
      },
      "burn(uint256)": {
        "notice": "Destroy tokens Remove `_value` tokens from the system irreversibly"
      },
      "burnFrom(address,uint256)": {
        "notice": "Destroy tokens from other account Remove `_value` tokens from the system irreversibly on behalf of `_from`."
      },
      "constructor": {
        "notice": "Constructor function Initializes contract with initial supply tokens to the owner of the contract"
      },
      "setDeveloperStatus(address,bool)": {
        "notice": "Developer status"
      },
      "transferAllowance(address,address,uint256)": {
        "notice": "Transfer allowance from other address's allowance Send `_value` tokens to `_to` in behalf of `_from`"
      }
    },
    "version": 1
  }
}