{
  "contractName": "RoyaltyToken",
  "abi": [
    {
      "anonymous": false,
      "inputs": [
        {
          "indexed": true,
          "internalType": "address",
          "name": "owner",
          "type": "address"
        },
        {
          "indexed": true,
          "internalType": "address",
          "name": "spender",
          "type": "address"
        },
        {
          "indexed": false,
          "internalType": "uint256",
          "name": "value",
          "type": "uint256"
        }
      ],
      "name": "Approval",
      "type": "event"
    },
    {
      "anonymous": false,
      "inputs": [
        {
          "indexed": true,
          "internalType": "address",
          "name": "_address",
          "type": "address"
        },
        {
          "indexed": false,
          "internalType": "bool",
          "name": "status",
          "type": "bool"
        }
      ],
      "name": "RestrictedStatusChanged",
      "type": "event"
    },
    {
      "anonymous": false,
      "inputs": [
        {
          "indexed": true,
          "internalType": "address",
          "name": "from",
          "type": "address"
        },
        {
          "indexed": true,
          "internalType": "address",
          "name": "to",
          "type": "address"
        },
        {
          "indexed": false,
          "internalType": "uint256",
          "name": "value",
          "type": "uint256"
        }
      ],
      "name": "Transfer",
      "type": "event"
    },
    {
      "inputs": [
        {
          "internalType": "address",
          "name": "",
          "type": "address"
        },
        {
          "internalType": "address",
          "name": "",
          "type": "address"
        }
      ],
      "name": "_allowances",
      "outputs": [
        {
          "internalType": "uint256",
          "name": "",
          "type": "uint256"
        }
      ],
      "stateMutability": "view",
      "type": "function"
    },
    {
      "inputs": [
        {
          "internalType": "address",
          "name": "",
          "type": "address"
        }
      ],
      "name": "_balances",
      "outputs": [
        {
          "internalType": "uint256",
          "name": "",
          "type": "uint256"
        }
      ],
      "stateMutability": "view",
      "type": "function"
    },
    {
      "inputs": [],
      "name": "_totalSupply",
      "outputs": [
        {
          "internalType": "uint256",
          "name": "",
          "type": "uint256"
        }
      ],
      "stateMutability": "view",
      "type": "function"
    },
    {
      "inputs": [
        {
          "internalType": "address",
          "name": "",
          "type": "address"
        }
      ],
      "name": "accounts",
      "outputs": [
        {
          "internalType": "uint256",
          "name": "balance",
          "type": "uint256"
        },
        {
          "internalType": "uint256",
          "name": "lastRoyaltyPoint",
          "type": "uint256"
        }
      ],
      "stateMutability": "view",
      "type": "function"
    },
    {
      "inputs": [
        {
          "internalType": "address",
          "name": "owner",
          "type": "address"
        },
        {
          "internalType": "address",
          "name": "spender",
          "type": "address"
        }
      ],
      "name": "allowance",
      "outputs": [
        {
          "internalType": "uint256",
          "name": "",
          "type": "uint256"
        }
      ],
      "stateMutability": "view",
      "type": "function"
    },
    {
      "inputs": [
        {
          "internalType": "address",
          "name": "spender",
          "type": "address"
        },
        {
          "internalType": "uint256",
          "name": "amount",
          "type": "uint256"
        }
      ],
      "name": "approve",
      "outputs": [
        {
          "internalType": "bool",
          "name": "",
          "type": "bool"
        }
      ],
      "stateMutability": "nonpayable",
      "type": "function"
    },
    {
      "inputs": [
        {
          "internalType": "address",
          "name": "account",
          "type": "address"
        }
      ],
      "name": "balanceOf",
      "outputs": [
        {
          "internalType": "uint256",
          "name": "",
          "type": "uint256"
        }
      ],
      "stateMutability": "view",
      "type": "function"
    },
    {
      "inputs": [
        {
          "internalType": "address",
          "name": "",
          "type": "address"
        }
      ],
      "name": "restrictedAddresses",
      "outputs": [
        {
          "internalType": "bool",
          "name": "",
          "type": "bool"
        }
      ],
      "stateMutability": "view",
      "type": "function"
    },
    {
      "inputs": [],
      "name": "totalRoyalty",
      "outputs": [
        {
          "internalType": "uint256",
          "name": "",
          "type": "uint256"
        }
      ],
      "stateMutability": "view",
      "type": "function"
    },
    {
      "inputs": [],
      "name": "totalSupply",
      "outputs": [
        {
          "internalType": "uint256",
          "name": "",
          "type": "uint256"
        }
      ],
      "stateMutability": "view",
      "type": "function"
    },
    {
      "inputs": [],
      "name": "unclaimedRoyalty",
      "outputs": [
        {
          "internalType": "uint256",
          "name": "",
          "type": "uint256"
        }
      ],
      "stateMutability": "view",
      "type": "function"
    },
    {
      "inputs": [
        {
          "internalType": "address",
          "name": "account",
          "type": "address"
        }
      ],
      "name": "RoyaltysOwing",
      "outputs": [
        {
          "internalType": "uint256",
          "name": "",
          "type": "uint256"
        }
      ],
      "stateMutability": "view",
      "type": "function"
    },
    {
      "inputs": [],
      "name": "disburse",
      "outputs": [],
      "stateMutability": "payable",
      "type": "function"
    },
    {
      "inputs": [
        {
          "internalType": "address",
          "name": "_to",
          "type": "address"
        },
        {
          "internalType": "uint256",
          "name": "_value",
          "type": "uint256"
        }
      ],
      "name": "transfer",
      "outputs": [
        {
          "internalType": "bool",
          "name": "success",
          "type": "bool"
        }
      ],
      "stateMutability": "nonpayable",
      "type": "function"
    },
    {
      "inputs": [
        {
          "internalType": "address",
          "name": "_from",
          "type": "address"
        },
        {
          "internalType": "address",
          "name": "_to",
          "type": "address"
        },
        {
          "internalType": "uint256",
          "name": "_value",
          "type": "uint256"
        }
      ],
      "name": "transferFrom",
      "outputs": [
        {
          "internalType": "bool",
          "name": "success",
          "type": "bool"
        }
      ],
      "stateMutability": "nonpayable",
      "type": "function"
    },
    {
      "inputs": [],
      "name": "withdrawRoyalty",
      "outputs": [],
      "stateMutability": "nonpayable",
      "type": "function"
    }
  ],
  "bytecode": "0x608060405234801561001057600080fd5b5061167d806100206000396000f3fe6080604052600436106100f35760003560e01c80636ebcf6071161008a578063d78506ce11610059578063d78506ce1461036c578063dd62ed3e146103a9578063f1147bae146103e6578063f751b26a146103fd576100f3565b80636ebcf607146102ab57806370a08231146102e8578063a9059cbb14610325578063abc6fd0b14610362576100f3565b80633eaaf86b116100c65780633eaaf86b146101da578063486f1c2a146102055780635a998a09146102425780635e5c06e21461026d576100f3565b8063024c2ddd146100f8578063095ea7b31461013557806318160ddd1461017257806323b872dd1461019d575b600080fd5b34801561010457600080fd5b5061011f600480360381019061011a9190610fe5565b610428565b60405161012c9190611409565b60405180910390f35b34801561014157600080fd5b5061015c60048036038101906101579190611070565b61044d565b604051610169919061132e565b60405180910390f35b34801561017e57600080fd5b5061018761046b565b6040516101949190611409565b60405180910390f35b3480156101a957600080fd5b506101c460048036038101906101bf9190611021565b610475565b6040516101d1919061132e565b60405180910390f35b3480156101e657600080fd5b506101ef61049d565b6040516101fc9190611409565b60405180910390f35b34801561021157600080fd5b5061022c60048036038101906102279190610fbc565b6104a3565b604051610239919061132e565b60405180910390f35b34801561024e57600080fd5b506102576104c3565b6040516102649190611409565b60405180910390f35b34801561027957600080fd5b50610294600480360381019061028f9190610fbc565b6104c9565b6040516102a2929190611424565b60405180910390f35b3480156102b757600080fd5b506102d260048036038101906102cd9190610fbc565b6104ed565b6040516102df9190611409565b60405180910390f35b3480156102f457600080fd5b5061030f600480360381019061030a9190610fbc565b610505565b60405161031c9190611409565b60405180910390f35b34801561033157600080fd5b5061034c60048036038101906103479190611070565b61054d565b604051610359919061132e565b60405180910390f35b61036a6105cf565b005b34801561037857600080fd5b50610393600480360381019061038e9190610fbc565b61062e565b6040516103a09190611409565b60405180910390f35b3480156103b557600080fd5b506103d060048036038101906103cb9190610fe5565b6106c6565b6040516103dd9190611409565b60405180910390f35b3480156103f257600080fd5b506103fb61074d565b005b34801561040957600080fd5b506104126107f5565b60405161041f9190611409565b60405180910390f35b6001602052816000526040600020602052806000526040600020600091509150505481565b600061046161045a6107fb565b8484610803565b6001905092915050565b6000600254905090565b6000610480836109ce565b610489846109ce565b610494848484610ae8565b90509392505050565b60025481565b60036020528060005260406000206000915054906101000a900460ff1681565b60055481565b60046020528060005260406000206000915090508060000154908060010154905082565b60006020528060005260406000206000915090505481565b60008060008373ffffffffffffffffffffffffffffffffffffffff1673ffffffffffffffffffffffffffffffffffffffff168152602001908152602001600020549050919050565b6000801515600360003373ffffffffffffffffffffffffffffffffffffffff1673ffffffffffffffffffffffffffffffffffffffff16815260200190815260200160002060009054906101000a900460ff161515146105ab57600080fd5b6105b4836109ce565b6105bd336109ce565b6105c78383610be0565b905092915050565b60006105d961046b565b116105e357600080fd5b600034116105f057600080fd5b600034905061060a81600554610bfe90919063ffffffff16565b60058190555061062581600654610bfe90919063ffffffff16565b60068190555050565b600080610688600460008573ffffffffffffffffffffffffffffffffffffffff1673ffffffffffffffffffffffffffffffffffffffff16815260200190815260200160002060010154600554610c5090919063ffffffff16565b90506106be61069561046b565b6106b0836106a287610505565b610c9d90919063ffffffff16565b610d0c90919063ffffffff16565b915050919050565b6000600160008473ffffffffffffffffffffffffffffffffffffffff1673ffffffffffffffffffffffffffffffffffffffff16815260200190815260200160002060008373ffffffffffffffffffffffffffffffffffffffff1673ffffffffffffffffffffffffffffffffffffffff16815260200190815260200160002054905092915050565b610756336109ce565b6000600460003373ffffffffffffffffffffffffffffffffffffffff1673ffffffffffffffffffffffffffffffffffffffff168152602001908152602001600020600001549050600081116107aa57600080fd5b6000600460003373ffffffffffffffffffffffffffffffffffffffff1673ffffffffffffffffffffffffffffffffffffffff1681526020019081526020016000206000018190555050565b60065481565b600033905090565b600073ffffffffffffffffffffffffffffffffffffffff168373ffffffffffffffffffffffffffffffffffffffff161415610873576040517f08c379a000000000000000000000000000000000000000000000000000000000815260040161086a906113e9565b60405180910390fd5b600073ffffffffffffffffffffffffffffffffffffffff168273ffffffffffffffffffffffffffffffffffffffff1614156108e3576040517f08c379a00000000000000000000000000000000000000000000000000000000081526004016108da90611369565b60405180910390fd5b80600160008573ffffffffffffffffffffffffffffffffffffffff1673ffffffffffffffffffffffffffffffffffffffff16815260200190815260200160002060008473ffffffffffffffffffffffffffffffffffffffff1673ffffffffffffffffffffffffffffffffffffffff168152602001908152602001600020819055508173ffffffffffffffffffffffffffffffffffffffff168373ffffffffffffffffffffffffffffffffffffffff167f8c5be1e5ebec7d5bd14f71427d1e84f3dd0314c0f7b2291e5b200ac8c7c3b925836040516109c19190611409565b60405180910390a3505050565b60006109d98261062e565b9050600554600460008473ffffffffffffffffffffffffffffffffffffffff1673ffffffffffffffffffffffffffffffffffffffff168152602001908152602001600020600101819055506000811115610ae457610a4281600654610c5090919063ffffffff16565b600681905550610a9d81600460008573ffffffffffffffffffffffffffffffffffffffff1673ffffffffffffffffffffffffffffffffffffffff16815260200190815260200160002060000154610bfe90919063ffffffff16565b600460008473ffffffffffffffffffffffffffffffffffffffff1673ffffffffffffffffffffffffffffffffffffffff168152602001908152602001600020600001819055505b5050565b6000610af5848484610d27565b6000600160008673ffffffffffffffffffffffffffffffffffffffff1673ffffffffffffffffffffffffffffffffffffffff1681526020019081526020016000206000610b406107fb565b73ffffffffffffffffffffffffffffffffffffffff1673ffffffffffffffffffffffffffffffffffffffff16815260200190815260200160002054905082811015610bc0576040517f08c379a0000000000000000000000000000000000000000000000000000000008152600401610bb7906113a9565b60405180910390fd5b610bd485610bcc6107fb565b858403610803565b60019150509392505050565b6000610bf4610bed6107fb565b8484610d27565b6001905092915050565b6000808284610c0d919061145e565b905083811015610c46577f4e487b7100000000000000000000000000000000000000000000000000000000600052600160045260246000fd5b8091505092915050565b600082821115610c89577f4e487b7100000000000000000000000000000000000000000000000000000000600052600160045260246000fd5b8183610c95919061153f565b905092915050565b600080831415610cb05760009050610d06565b60008284610cbe91906114e5565b9050828482610ccd91906114b4565b14610d01577f4e487b7100000000000000000000000000000000000000000000000000000000600052600160045260246000fd5b809150505b92915050565b6000808284610d1b91906114b4565b90508091505092915050565b600073ffffffffffffffffffffffffffffffffffffffff168373ffffffffffffffffffffffffffffffffffffffff161415610d97576040517f08c379a0000000000000000000000000000000000000000000000000000000008152600401610d8e906113c9565b60405180910390fd5b600073ffffffffffffffffffffffffffffffffffffffff168273ffffffffffffffffffffffffffffffffffffffff161415610e07576040517f08c379a0000000000000000000000000000000000000000000000000000000008152600401610dfe90611349565b60405180910390fd5b60008060008573ffffffffffffffffffffffffffffffffffffffff1673ffffffffffffffffffffffffffffffffffffffff16815260200190815260200160002054905081811015610e8d576040517f08c379a0000000000000000000000000000000000000000000000000000000008152600401610e8490611389565b60405180910390fd5b8181036000808673ffffffffffffffffffffffffffffffffffffffff1673ffffffffffffffffffffffffffffffffffffffff16815260200190815260200160002081905550816000808573ffffffffffffffffffffffffffffffffffffffff1673ffffffffffffffffffffffffffffffffffffffff1681526020019081526020016000206000828254610f20919061145e565b925050819055508273ffffffffffffffffffffffffffffffffffffffff168473ffffffffffffffffffffffffffffffffffffffff167fddf252ad1be2c89b69c2b068fc378daa952ba7f163c4a11628f55a4df523b3ef84604051610f849190611409565b60405180910390a350505050565b600081359050610fa181611619565b92915050565b600081359050610fb681611630565b92915050565b600060208284031215610fce57600080fd5b6000610fdc84828501610f92565b91505092915050565b60008060408385031215610ff857600080fd5b600061100685828601610f92565b925050602061101785828601610f92565b9150509250929050565b60008060006060848603121561103657600080fd5b600061104486828701610f92565b935050602061105586828701610f92565b925050604061106686828701610fa7565b9150509250925092565b6000806040838503121561108357600080fd5b600061109185828601610f92565b92505060206110a285828601610fa7565b9150509250929050565b6110b581611585565b82525050565b60006110c860238361144d565b91507f45524332303a207472616e7366657220746f20746865207a65726f206164647260008301527f65737300000000000000000000000000000000000000000000000000000000006020830152604082019050919050565b600061112e60228361144d565b91507f45524332303a20617070726f766520746f20746865207a65726f20616464726560008301527f73730000000000000000000000000000000000000000000000000000000000006020830152604082019050919050565b600061119460268361144d565b91507f45524332303a207472616e7366657220616d6f756e742065786365656473206260008301527f616c616e636500000000000000000000000000000000000000000000000000006020830152604082019050919050565b60006111fa60288361144d565b91507f45524332303a207472616e7366657220616d6f756e742065786365656473206160008301527f6c6c6f77616e63650000000000000000000000000000000000000000000000006020830152604082019050919050565b600061126060258361144d565b91507f45524332303a207472616e736665722066726f6d20746865207a65726f20616460008301527f64726573730000000000000000000000000000000000000000000000000000006020830152604082019050919050565b60006112c660248361144d565b91507f45524332303a20617070726f76652066726f6d20746865207a65726f2061646460008301527f72657373000000000000000000000000000000000000000000000000000000006020830152604082019050919050565b611328816115b1565b82525050565b600060208201905061134360008301846110ac565b92915050565b60006020820190508181036000830152611362816110bb565b9050919050565b6000602082019050818103600083015261138281611121565b9050919050565b600060208201905081810360008301526113a281611187565b9050919050565b600060208201905081810360008301526113c2816111ed565b9050919050565b600060208201905081810360008301526113e281611253565b9050919050565b60006020820190508181036000830152611402816112b9565b9050919050565b600060208201905061141e600083018461131f565b92915050565b6000604082019050611439600083018561131f565b611446602083018461131f565b9392505050565b600082825260208201905092915050565b6000611469826115b1565b9150611474836115b1565b9250827fffffffffffffffffffffffffffffffffffffffffffffffffffffffffffffffff038211156114a9576114a86115bb565b5b828201905092915050565b60006114bf826115b1565b91506114ca836115b1565b9250826114da576114d96115ea565b5b828204905092915050565b60006114f0826115b1565b91506114fb836115b1565b9250817fffffffffffffffffffffffffffffffffffffffffffffffffffffffffffffffff0483118215151615611534576115336115bb565b5b828202905092915050565b600061154a826115b1565b9150611555836115b1565b925082821015611568576115676115bb565b5b828203905092915050565b600061157e82611591565b9050919050565b60008115159050919050565b600073ffffffffffffffffffffffffffffffffffffffff82169050919050565b6000819050919050565b7f4e487b7100000000000000000000000000000000000000000000000000000000600052601160045260246000fd5b7f4e487b7100000000000000000000000000000000000000000000000000000000600052601260045260246000fd5b61162281611573565b811461162d57600080fd5b50565b611639816115b1565b811461164457600080fd5b5056fea26469706673582212204a0c984697b05b9779640fde527098ace1a35470257be6e8fb1768bf30c24dbd64736f6c63430008000033",
  "immutableReferences": {},
  "source": "// SPDX-License-Identifier: MIT\r\n\r\npragma solidity ^0.8.0;\r\n\r\nimport './SafeMath.sol';\r\nimport './IERC20.sol';\r\nimport './ERC20.sol';\r\n\r\ncontract RoyaltyToken is ERC20 {\r\n  using SafeMath for uint256;\r\n  // restricted addresses\t\r\n  mapping(address => bool) public restrictedAddresses;\r\n  \r\n  event RestrictedStatusChanged(address indexed _address, bool status);\r\n\r\n  struct Account {\r\n    uint256 balance;\r\n    uint256 lastRoyaltyPoint;\r\n  }\r\n\r\n  mapping(address => Account) public accounts;\r\n  uint256 public totalRoyalty;\r\n  uint256 public unclaimedRoyalty;\r\n\r\n  /**\r\n   * Get Royalty amount for given account\r\n   *\r\n   * @param account The address for Royalty account\r\n   */\r\n  function RoyaltysOwing(address account) public view returns (uint256) {\r\n    uint256 newRoyalty = totalRoyalty.sub(accounts[account].lastRoyaltyPoint);\r\n   // return balances[account].mul(newRoyalty).div(totalSupply);\r\n    \r\n    return balanceOf(account).mul(newRoyalty).div(totalSupply());\r\n  }\r\n\r\n  /**\r\n   * @dev Update account for Royalty\r\n   * @param account The address of owner\r\n   */\r\n  function updateAccount(address account) internal {\r\n    uint256 owing = RoyaltysOwing(account);\r\n    accounts[account].lastRoyaltyPoint = totalRoyalty;\r\n    if (owing > 0) {\r\n      unclaimedRoyalty = unclaimedRoyalty.sub(owing);\r\n      accounts[account].balance = accounts[account].balance.add(owing);\r\n    }\r\n  }\r\n\r\n  function disburse() public payable {\r\n    require(totalSupply() > 0);\r\n    require(msg.value > 0);\r\n\r\n    uint256 newRoyalty = msg.value;\r\n    totalRoyalty = totalRoyalty.add(newRoyalty);\r\n    unclaimedRoyalty = unclaimedRoyalty.add(newRoyalty);\r\n  }\r\n\r\n  /**\r\n   * @dev Send `_value` tokens to `_to` from your account\r\n   *\r\n   * @param _to The address of the recipient\r\n   * @param _value the amount to send\r\n   */\r\n  function transfer(address _to, uint256 _value) public override returns (bool success) {\r\n    // Require that the sender is not restricted\r\n    require(restrictedAddresses[msg.sender] == false);\r\n    updateAccount(_to);\r\n    updateAccount(msg.sender);\r\n    return super.transfer(_to, _value);\r\n  }\r\n\r\n  /**\r\n   * @dev Transfer tokens from other address. Send `_value` tokens to `_to` in behalf of `_from`\r\n   *\r\n   * @param _from The address of the sender\r\n   * @param _to The address of the recipient\r\n   * @param _value the amount to send\r\n   */\r\n  function transferFrom(\r\n    address _from,\r\n    address _to,\r\n    uint256 _value\r\n  ) public override returns (bool success) {\r\n    updateAccount(_to);\r\n    updateAccount(_from);\r\n    return super.transferFrom(_from, _to, _value);\r\n  }\r\n\r\n  function withdrawRoyalty() public {\r\n    updateAccount(msg.sender);\r\n\r\n    // retrieve Royalty amount\r\n    uint256 RoyaltyAmount = accounts[msg.sender].balance;\r\n    require(RoyaltyAmount > 0);\r\n    accounts[msg.sender].balance = 0;\r\n\r\n    // transfer Royalty amount\r\n    //msg.sender.transfer(RoyaltyAmount);\r\n  }\r\n}\r\n",
  "sourcePath": "/home/vishwakarma/Desktop/new_klaytn/contracts/RoyaltyToken.sol",
  "compiler": {
    "name": "solc",
    "version": "0.8.0+commit.c7dfd78e.Emscripten.clang"
  },
  "schemaVersion": "3.4.1",
  "updatedAt": "2021-07-13T09:47:53.499Z",
  "devdoc": {
    "kind": "dev",
    "methods": {
      "RoyaltysOwing(address)": {
        "params": {
          "account": "The address for Royalty account"
        }
      },
      "transfer(address,uint256)": {
        "details": "Send `_value` tokens to `_to` from your account",
        "params": {
          "_to": "The address of the recipient",
          "_value": "the amount to send"
        }
      },
      "transferFrom(address,address,uint256)": {
        "details": "Transfer tokens from other address. Send `_value` tokens to `_to` in behalf of `_from`",
        "params": {
          "_from": "The address of the sender",
          "_to": "The address of the recipient",
          "_value": "the amount to send"
        }
      }
    },
    "version": 1
  },
  "userdoc": {
    "kind": "user",
    "methods": {
      "RoyaltysOwing(address)": {
        "notice": "Get Royalty amount for given account"
      }
    },
    "version": 1
  }
}